:020000040800F2
:1000000000000220E56501088156010885560108B7
:10001000895601088D56010891560108000000001C
:1000200000000000000000000000000095560108DC
:1000300099560108000000009D560108A1560108CC
:100040003566010835660108356601083566010820
:100050003566010835660108356601083566010810
:100060003566010835660108356601083566010800
:1000700035660108356601083566010835660108F0
:100080003566010835660108A55601083566010880
:1000900035660108356601083566010835660108D0
:1000A00035660108B1560108356601083566010854
:1000B000BD560108C9560108D55601083566010824
:1000C00035660108356601083566010835660108A0
:1000D00035660108E15601083566010835660108F4
:1000E0003566010835660108356601083566010880
:1000F000ED560108F9560108356601083566010814
:10010000356601080557010835660108356601089E
:100110003566010835660108115701082D57010899
:10012000356601083566010835660108395701084A
:10013000356601083566010835660108356601082F
:10014000356601083566010835660108455701081E
:10015000356601083566010835660108356601080F
:1001600035660108356601083566010835660108FF
:100170003566010835660108356601080000000093
:0801800035660108356601082F
:1001900010B5054C237833B9044B13B10448AFF3C1
:1001A00000800123237010BD8005002000000000A6
:1001B000BC9F010808B5034B1BB103490348AFF3CB
:1001C000008008BD0000000084050020BC9F0108DD
:1001D00010F8012B11F8013B012A28BF9A42F7D0F1
:1001E000D01A7047034613F8012B002AFBD1181AC6
:1001F000013870470000000000000000000000000F
:1002000001F0FF01102A2BDB10F0070F08D010F8C7
:10021000013B013A8B422DD010F0070F42B3F6D1CB
:10022000F0B441EA012141EA014122F007047FF0E4
:1002300000070023F0E80256083C85EA010586EA3B
:10024000010685FA47F5A3FA87F586FA47F6A5FA77
:1002500087F68EB9EED1F0BC01F0FF0102F0070283
:1002600032B110F8013B013A83EA010313B1F8D12E
:100270000020704701387047002D06BF354603380F
:10028000073815F0010F07D1013015F4807F02BF48
:10029000013015F4C03F0130F0BC0138704700BF99
:1002A00081F0004102E000BF83F0004330B54FEA27
:1002B00041044FEA430594EA050F08BF90EA020F94
:1002C0001FBF54EA000C55EA020C7FEA645C7FEA27
:1002D000655C00F0E2804FEA5454D4EB5555B8BF4A
:1002E0006D420CDD2C4480EA020281EA030382EABB
:1002F000000083EA010180EA020281EA0303362D4D
:1003000088BF30BD11F0004F4FEA01314FF4801C1F
:100310004CEA113102D0404261EB410113F0004F31
:100320004FEA03334CEA133302D0524263EB4303E8
:1003300094EA050F00F0A780A4F10104D5F1200E86
:100340000DDB02FA0EFC22FA05F2801841F10001E1
:1003500003FA0EF2801843FA05F359410EE0A5F1B5
:1003600020050EF1200E012A03FA0EFC28BF4CF0E6
:10037000020C43FA05F3C01851EBE37101F000459C
:1003800007D54FF0000EDCF1000C7EEB00006EEBA9
:100390000101B1F5801F1BD3B1F5001F0CD3490833
:1003A0005FEA30004FEA3C0C04F101044FEA44528A
:1003B00012F5800F80F09A80BCF1004F08BF5FEA11
:1003C000500C50F1000041EB045141EA050130BDF1
:1003D0005FEA4C0C404141EB0101013C28BFB1F503
:1003E000801FE9D291F0000F04BF01460020B1FA4E
:1003F00081F308BF2033A3F10B03B3F120020CDA21
:100400000C3208DD02F1140CC2F10C0201FA0CF0FE
:1004100021FA02F10CE002F11402D8BFC2F1200C63
:1004200001FA02F120FA0CFCDCBF41EA0C01904019
:10043000E41AA2BF01EB0451294330BD6FEA040462
:100440001F3C1CDA0C340EDC04F11404C4F120024D
:1004500020FA04F001FA02F340EA030021FA04F35F
:1004600045EA030130BDC4F10C04C4F1200220FAB6
:1004700002F001FA04F340EA0300294630BD21FAF4
:1004800004F0294630BD94F0000F83F4801306BFBA
:1004900081F480110134013D4EE77FEA645C18BFAE
:1004A0007FEA655C29D094EA050F08BF90EA020F45
:1004B00005D054EA000C04BF1946104630BD91EA3D
:1004C000030F1EBF0021002030BD5FEA545C05D140
:1004D0004000494128BF41F0004130BD14F580047F
:1004E0003CBF01F5801130BD01F0004545F0FE41F3
:1004F00041F470014FF0000030BD7FEA645C1ABF28
:10050000194610467FEA655C1CBF0B46024650EA5E
:10051000013406BF52EA033591EA030F41F400218A
:1005200030BD00BF90F0000F04BF0021704730B510
:100530004FF4806404F132044FF000054FF00001E5
:1005400050E700BF90F0000F04BF0021704730B5A6
:100550004FF4806404F1320410F0004548BF40427B
:100560004FF000013EE700BF42004FEAE2014FEAD0
:1005700031014FEA02701FBF12F07F4393F07F4FAB
:1005800081F06051704732F07F4208BF704793F0AE
:100590007F4F04BF41F40021704730B54FF46074C1
:1005A00001F0004521F000411CE700BF50EA0102C4
:1005B00008BF704730B54FF000050AE050EA01026D
:1005C00008BF704730B511F0004502D5404261EBDD
:1005D00041014FF4806404F132045FEA915C3FF41E
:1005E000D8AE4FF003025FEADC0C18BF03325FEABB
:1005F000DC0C18BF033202EBDC02C2F1200300FA6C
:1006000003FC20FA02F001FA03FE40EA0E0021FA90
:1006100002F11444BDE600BF70B54FF0FF0C4CF47E
:10062000E06C1CEA11541DBF1CEA135594EA0C0F30
:1006300095EA0C0F00F0DEF82C4481EA030621EA6B
:100640004C5123EA4C5350EA013518BF52EA0335A6
:1006500041F4801143F4801338D0A0FB02CE4FF058
:100660000005E1FB02E506F00042E0FB03E54FF088
:100670000006E1FB03569CF0000F18BF4EF0010E80
:10068000A4F1FF04B6F5007F64F5407404D25FEA7C
:100690004E0E6D4146EB060642EAC62141EA55512F
:1006A0004FEAC52040EA5E504FEACE2EB4F1FD0C71
:1006B00088BFBCF5E06F1ED8BEF1004F08BF5FEAEF
:1006C000500E50F1000041EB045170BD06F00046A1
:1006D00046EA010140EA020081EA0301B4EB5C044E
:1006E000C2BFD4EB0C0541EA045170BD41F4801146
:1006F0004FF0000E013C00F3AB8014F1360FDEBF6B
:10070000002001F0004170BDC4F10004203C35DA46
:100710000C341BDC04F11404C4F1200500FA05F3C9
:1007200020FA04F001FA05F240EA020001F000426A
:1007300021F0004110EBD37021FA04F642EB0601E0
:100740005EEA430E08BF20EAD37070BDC4F10C040A
:10075000C4F1200500FA04F320FA05F001FA04F2CE
:1007600040EA020001F0004110EBD37041F10001BA
:100770005EEA430E08BF20EAD37070BDC4F12005C5
:1007800000FA05F24EEA020E20FA04F301FA05F22D
:1007900043EA020321FA04F001F0004121FA04F2D5
:1007A00020EA020000EBD3705EEA430E08BF20EAA5
:1007B000D37070BD94F0000F0FD101F000464000DF
:1007C00041EB010111F4801F08BF013CF7D041EA61
:1007D000060195F0000F18BF704703F00046520065
:1007E00043EB030313F4801F08BF013DF7D043EA36
:1007F0000603704794EA0C0F0CEA135518BF95EAEC
:100800000C0F0CD050EA410618BF52EA4306D1D172
:1008100081EA030101F000414FF0000070BD50EA91
:10082000410606BF1046194652EA430619D094EA1B
:100830000C0F02D150EA013613D195EA0C0F05D105
:1008400052EA03361CBF104619460AD181EA030159
:1008500001F0004141F0FE4141F470014FF0000011
:1008600070BD41F0FE4141F4780170BD70B54FF0AC
:10087000FF0C4CF4E06C1CEA11541DBF1CEA13552C
:1008800094EA0C0F95EA0C0F00F0A7F8A4EB05040E
:1008900081EA030E52EA03354FEA013100F0888005
:1008A0004FEA03334FF0805545EA131343EA1263CE
:1008B0004FEA022245EA111545EA10654FEA002683
:1008C0000EF000419D4208BF964244F1FD0404F53C
:1008D000407402D25B084FEA3202B61A65EB030598
:1008E0005B084FEA32024FF480104FF4002CB6EB55
:1008F000020E75EB030E22BFB61A754640EA0C00D5
:100900005B084FEA3202B6EB020E75EB030E22BF14
:10091000B61A754640EA5C005B084FEA3202B6EB55
:10092000020E75EB030E22BFB61A754640EA9C0014
:100930005B084FEA3202B6EB020E75EB030E22BFE4
:10094000B61A754640EADC0055EA060E18D04FEAA2
:10095000051545EA16754FEA06164FEAC30343EA42
:1009600052734FEAC2025FEA1C1CC0D111F4801F0F
:100970000BD141EA00014FF000004FF0004CB6E708
:1009800011F4801F04BF01430020B4F1FD0C88BFA7
:10099000BCF5E06F3FF6AFAEB5EB030C04BFB6EBB2
:1009A000020C5FEA500C50F1000041EB045170BDA5
:1009B0000EF0004E4EEA113114EB5C04C2BFD4EBD2
:1009C0000C0541EA045170BD41F480114FF0000E56
:1009D000013C90E645EA060E8DE60CEA135594EAD2
:1009E0000C0F08BF95EA0C0F3FF43BAF94EA0C0FD5
:1009F0000AD150EA01347FF434AF95EA0C0F7FF44A
:100A000025AF104619462CE795EA0C0F06D152EA9D
:100A100003353FF4FDAE1046194622E750EA410681
:100A200018BF52EA43067FF4C5AE50EA41047FF492
:100A30000DAF52EA43057FF4EBAE12E74FF0FF3CF7
:100A400006E000BF4FF0010C02E000BF4FF0010CC8
:100A50004DF804CD4FEA410C7FEA6C5C4FEA430C41
:100A600018BF7FEA6C5C1BD001B050EA410C0CBF90
:100A700052EA430C91EA030F02BF90EA020F0020F2
:100A8000704710F1000F91EA030F58BF994208BF59
:100A900090422CBFD8176FEAE37040F00100704716
:100AA0004FEA410C7FEA6C5C02D150EA013C07D16D
:100AB0004FEA430C7FEA6C5CD6D152EA033CD3D0B8
:100AC0005DF8040B704700BF8446104662468C46B2
:100AD0001946634600E000BF01B5FFF7B7FF0028E5
:100AE00048BF10F1000F01BD4DF808EDFFF7F4FF0E
:100AF0000CBF012000205DF808FB00BF4DF808ED99
:100B0000FFF7EAFF34BF012000205DF808FB00BFBB
:100B10004DF808EDFFF7E0FF94BF012000205DF8DD
:100B200008FB00BF4DF808EDFFF7CEFF94BF012092
:100B300000205DF808FB00BF4DF808EDFFF7C4FF8B
:100B400034BF012000205DF808FB00BF4FEA410CD4
:100B50007FEA6C5C02D150EA013C0AD14FEA430CB7
:100B60007FEA6C5C02D152EA033C02D14FF00000F4
:100B700070474FF0010070474FEA410212F5001232
:100B800015D211D56FF47873B3EB625212D94FEAD4
:100B9000C12343F0004343EA505311F0004F23FABE
:100BA00002F018BF404270474FF00000704750EA13
:100BB000013005D111F0004008BF6FF000407047D0
:100BC0004FF00000704700BF4A0011D212F500122A
:100BD00011D20DD56FF47873B3EB62520ED44FEA95
:100BE000C12343F0004343EA505323FA02F0704715
:100BF0004FF00000704750EA013002D14FF0FF3053
:100C000070474FF00000704753B94AB9002908BF38
:100C100000281CBF4FF0FF314FF0FF3000F074B9D7
:100C2000ADF1080C6DE904CE00F006F8DDF804E043
:100C3000DDE9022304B070472DE9F047089D044622
:100C40008E46002B4DD18A42944669D9B2FA82F27F
:100C500052B101FA02F3C2F1200120FA01F10CFABB
:100C600002FC41EA030E94404FEA1C48210CBEFBF3
:100C7000F8F61FFA8CF708FB16E341EA034306FB7C
:100C800007F199420AD91CEB030306F1FF3080F00B
:100C90001F81994240F21C81023E63445B1AA4B258
:100CA000B3FBF8F008FB103344EA034400FB07F7FA
:100CB000A7420AD91CEB040400F1FF3380F00A813B
:100CC000A74240F207816444023840EA0640E41B30
:100CD00000261DB1D4400023C5E900433146BDE8DC
:100CE000F0878B4209D9002D00F0EF800026C5E97E
:100CF000000130463146BDE8F087B3FA83F6002E96
:100D00004AD18B4202D3824200F2F980841A61EB0D
:100D1000030301209E46002DE0D0C5E9004EDDE72B
:100D200002B9FFDEB2FA82F2002A40F09280A1EB13
:100D30000C014FEA1C471FFA8CFE0126200CB1FB68
:100D4000F7F307FB131140EA01410EFB03F0884261
:100D500008D91CEB010103F1FF3802D2884200F2EE
:100D6000CB804346091AA4B2B1FBF7F007FB101180
:100D700044EA01440EFB00FEA64508D91CEB04041E
:100D800000F1FF3102D2A64500F2BB800846A4EB79
:100D90000E0440EA03409CE7C6F12007B34022FA64
:100DA00007FC4CEA030C20FA07F401FA06F31C4393
:100DB000F9404FEA1C4900FA06F3B1FBF9F8200CA0
:100DC0001FFA8CFE09FB181140EA014108FB0EF0E6
:100DD000884202FA06F20BD91CEB010108F1FF3A36
:100DE00080F08880884240F28580A8F10208614442
:100DF000091AA4B2B1FBF9F009FB101144EA014150
:100E000000FB0EFE8E4508D91CEB010100F1FF34FA
:100E10006CD28E456AD90238614440EA0840A0FB92
:100E20000294A1EB0E01A142C846A64656D353D068
:100E30005DB1B3EB080261EB0E0101FA07F722FA8C
:100E400006F3F1401F43C5E9007100263146BDE8B5
:100E5000F087C2F12003D8400CFA02FC21FA03F318
:100E6000914001434FEA1C471FFA8CFEB3FBF7F099
:100E700007FB10360B0C43EA064300FB0EF69E42BE
:100E800004FA02F408D91CEB030300F1FF382FD257
:100E90009E422DD9023863449B1B89B2B3FBF7F6FF
:100EA00007FB163341EA034106FB0EF38B4208D9D8
:100EB0001CEB010106F1FF3816D28B4214D9023E19
:100EC0006144C91A46EA004638E72E46284605E737
:100ED0000646E3E61846F8E64B45A9D2B9EB020808
:100EE00064EB0C0E0138A3E74646EAE7204694E798
:100EF0004046D1E7D0467BE7023B614432E73046CB
:100F000009E76444023842E7704700BF2DE9F04129
:100F1000254F264C84B0384600224FF4004102F0A1
:100F200081FB64259F2000950DF10F020DF10E014C
:100F30008DF80E000123204605F070FAA5260095D5
:100F40000DF10F020DF10E01012320468DF80E6008
:100F500005F064FA00950DF10F020DF10E01012369
:100F600020469DF80F808DF80E6005F057FA009529
:100F70000DF10F020DF10E01012320469DF80F40E7
:100F80008DF80E6005F04AFA384601224FF4004110
:100F90009DF80F5002F046FB200240EA084028432B
:100FA00004B0BDE8F08100BF00000240A00F0020A7
:100FB0002DE9F0412348244E84B000224FF4004133
:100FC00002F030FB64254B238DF80E301E4800954F
:100FD00001230DF10F020DF10E0105F01FFA04249B
:100FE000A527012300950DF10F020DF10E013046EA
:100FF0008DF80E7005F012FA631E13F0FF04F0D1A5
:10100000124C114E4FF0A50804F108076425012386
:1010100000950DF10F020DF10E0130468DF80E8096
:1010200005F0FCF99DF80F3004F8013BBC42EED10D
:10103000044801224FF4004104B0BDE8F04102F041
:10104000F1BA00BF00000240A00F00209D05002063
:1010500070B5012084B001F0D5F91B481B4C1C4E23
:1010600000224FF4004102F0DDFA642305210093D1
:101070008DF80E10164801230DF10F020DF10E012F
:1010800005F0CCF9A525642001230DF10F020DF127
:101090000E01009030468DF80E5005F0BFF99DF816
:1010A0000F3084F82430012001F0ACF994F824309A
:1010B000DB07E8D4044801224FF4004104B0BDE846
:1010C000704002F0AFBA00BF000002409C05002053
:1010D000A00F002070B5944C012384B084F8273011
:1010E00001E001F08FF901F087F963284FF001006A
:1010F000F7D902464FF400418C4802F093FA64207D
:1011000001F080F9FFF702FF80B2A0F580401138AE
:10111000092800F20581DFE810F0A200AB00B5005D
:10112000BF00CA00D500E000EB00F7000A004FF452
:1011300080630A22E36122704FF480334FF48021F0
:101140004FF480404FF4807262814FF480522261EC
:101150004FF4803223626061E160A261FFF728FFF3
:10116000724800224FF4004102F05CFA6425052326
:101170008DF80E300DF10F0201230DF10E016C48B8
:10118000009505F04BF9A52601230DF10F020DF195
:101190000E01674800958DF80E6005F03FF99DF847
:1011A0000F30624884F8243001224FF4004102F0ED
:1011B00039FA5E4800224FF4004102F033FA4FF052
:1011C000350C01230DF10F020DF10E015848009569
:1011D0008DF80EC005F022F901230DF10F020DF17B
:1011E0000E01534800958DF80E6005F017F99DF833
:1011F0000F304E4884F8253001224FF4004102F0B0
:1012000011FA4A4800224FF4004102F00BFA4FF065
:10121000150C01230DF10F020DF10E01444800954C
:101220008DF80EC005F0FAF80DF10F020DF10E0168
:1012300001233F4800958DF80E6005F0EFF89DF80A
:101240000F303A4884F8263001224FF4004102F072
:10125000E9F9002384F82730012004B070BD02238F
:101260000122E361227080234FF40071202069E79E
:1012700004230222E36122704FF480734FF48061F3
:1012800040205FE708230322E36122704FF40073DC
:101290004FF40061802055E710230422E36122709F
:1012A0004FF480634FF480514FF480704AE720235D
:1012B0000522E36122704FF400634FF400514FF4B4
:1012C00000703FE740230622E36122704FF4805311
:1012D0004FF480414FF4806034E780230722E361BC
:1012E00022704FF400534FF400414FF4006029E79F
:1012F0004FF480730822E36122704FF480434FF46F
:1013000080314FF480501DE74FF400730922E361F0
:1013100022704FF400434FF400314FF4005011E7B6
:10132000002084F8270098E79C0500200000024078
:10133000A00F0020F0B5444C94F82730012B85B065
:10134000054606D1012001F05DF894F82730012B05
:10135000F8D0012684F82760FFF77AFE2069002282
:101360004FF4004100FB05F5384802F05BF96427B3
:1013700006238DF80E300DF10E0133460DF10F02EC
:101380003348009705F04AF832464FF400412F48A1
:1013900002F048F9304601F035F82C4800224FF4AD
:1013A000004102F03FF920238DF80E3028480097C5
:1013B00033460DF10F020DF10E0105F02FF82378E1
:1013C000082B33D864262B0C8DF80E300DF10F024C
:1013D0000DF10E01009601231D4805F01FF82F0A9C
:1013E0000DF10F020DF10E010096012318488DF842
:1013F0000E7005F013F801230DF10F020DF10E012F
:10140000009613488DF80E5005F008F801224FF4AD
:1014100000410E4802F006F9FFF71AFE012000F025
:10142000F1FF002384F8273005B0F0BD2A0E8DF8B7
:101430000E20009733460DF10F020DF10E01044806
:1014400004F0ECFFBEE700BF9C0500200000024056
:10145000A00F00202DE9F043504C1E4694F8273091
:10146000012B85B080460F46154607D1012000F0BC
:10147000C9FF94F827C0BCF1010FF7D0012263899E
:1014800084F8272072199A4278D8002E76D0FFF778
:10149000DFFD4FF06409424800224FF4004102F0A2
:1014A000C1F84FF0060C01230DF10F020DF10E01F2
:1014B0003C48CDF800908DF80EC004F0AFFF01223B
:1014C0004FF40041364802F0ADF8012000F09AFFD9
:1014D000334800224FF4004102F0A4F802238DF8B3
:1014E0000E300DF10F0201232E48CDF800900DF1C2
:1014F0000E0104F093FF23786289082B07FB025545
:101500003ED864274FEA154C0DF10F020DF10E0184
:101510000097012323488DF80EC004F07FFF4FEAA7
:10152000152C0DF10F020DF10E01009701231D483E
:101530008DF80EC004F072FF0DF10F020DF10E01D7
:101540000097012317488DF80E5004F067FF3B46C3
:10155000B2B24146134804F02FFE01224FF400417D
:101560000F4802F05FF8FFF773FD012000F04AFF1B
:10157000002384F8273005B0BDE8F0835E1B86E7C2
:101580002B0E8DF80E30CDF8009001230DF10F02D7
:101590000DF10E01034804F041FFB2E79C05002065
:1015A00000000240A00F00202DE9F041154F3D69D9
:1015B0009D42804624D3002B08BF2B4695421DD95F
:1015C0007E899818854234BFAC1A1C4601FB05F58C
:1015D000B2FBF6F1B5FBF6F506FB11260D443246DB
:1015E000234629464046FFF735FF7A89A41A34443A
:1015F0000026B44205F101059044F0DCBDE8F0811D
:101600002B46DBE79C0500202DE9F043404C94F885
:101610002730012B85B007460D46904606D10120A4
:1016200000F0F0FE94F82730012BF8D0394801265D
:1016300000224FF4004184F827604FF0640901F064
:10164000F1FF0B238DF80E303348CDF80090334670
:101650000DF10F020DF10E0104F0E0FE2378082BCE
:1016600047D864264FEA154C0DF10F020DF10E011B
:101670000096012328488DF80EC004F0CFFE4FEAF3
:10168000152C0DF10F020DF10E01009601232248D9
:101690008DF80EC004F0C2FE0DF10F020DF10E0127
:1016A000009601231C488DF80E5004F0B7FE00256B
:1016B0000DF10F020DF10E010096012316488DF871
:1016C0000E5004F0ABFE4FF4FA631FFA88F239466D
:1016D000114804F0DDFF01224FF400410D4801F0F4
:1016E000A1FF012000F08EFE84F8275005B0BDE870
:1016F000F0832A0E8DF80E20CDF8009033460DF1C0
:101700000F020DF10E01044804F088FEA9E700BFA6
:101710009C05002000000240A00F0020D0F8C0323D
:1017200083B110B5D0F8BC4294F80002FF2807D06E
:101730009B6894F8012221469847FF2384F80032E1
:10174000002010BD002070474323038000487047ED
:101750003800002043230380004870477C000020AD
:101760004323038000487047CC0000200A230380F5
:1017700000487047C000002038B5D0F8BC527DB199
:10178000044614F069FAD4F8C0320246DB68D5F892
:101790000402C5F80C2205F503719847002038BDF6
:1017A000032038BD70B5D0F8BC524DB301EB810EAB
:1017B00000EB8E0E8446DEF818300A465BB1D0F896
:1017C000C442C1EBC10604EB8604646CB3FBF4F6BF
:1017D00004FB163464B1DCF8C032D5F808021B698A
:1017E0000024C5F8144205F504719847204670BDE1
:1017F000CEF818402346224614F012FA204670BD57
:10180000032070BD2DE9F0410B78D0F8BC8282B086
:10181000002713F060060C4605468DF80570ADF8FC
:10182000067021D0202E16D1CE88002E3AD01B066D
:1018300051D5D0F8C03260789B683246414698470F
:10184000E288414628463E4600F048FD08E090F810
:101850009C32032B4AD02146284600F009FD03267E
:10186000304602B0BDE8F0814F780B2FF3D801A3CA
:1018700053F827F04F18000861180008571800089F
:10188000571800085718000857180008571800087C
:10189000571800085718000857180008C318000800
:1018A000B9180008D0F8C03248789B68324698478B
:1018B000304602B0BDE8F08190F89C32032BCFD0C7
:1018C000C9E790F89C32032BC5D101220DF1050127
:1018D00000F004FDC4E74B7888F8003288F8016214
:1018E0003246414600F010FD3E46B9E702220DF1B6
:1018F000060100F0F3FC3E46B2E700BF38B50446EF
:101900000025812114F040F901212587204614F09B
:101910003BF9A4F878518221204614F035F9D4F827
:10192000BC32E5644BB1D4F8C0325B689847D4F858
:10193000BC0214F0B3FEC4F8BC52002038BD00BF96
:101940002DE9F04104464FF4077014F09FFE054660
:1019500000284BD0237CC4F8BC0293B3402302225E
:1019600081210126204614F0FFF8268740233146C6
:101970000222204614F0F8F810230322A4F878611C
:10198000A4F84E3082210823204614F0EDF8D4F854
:10199000C0324FF001081B68A4F84C809847267CA1
:1019A000D5F804220027C5F81472C5F81872A6B934
:1019B0004FF400734146204614F040F93046BDE82C
:1019C000F0814FF40073022281210126204614F099
:1019D000CBF826874FF40073C9E7402341462046E1
:1019E0003E4614F02BF93046BDE8F081C4F8BC0245
:1019F0000226E3E719B1C0F8C012002070470320A7
:101A0000704700BFD0F8BC320020C3F80812C3F8FA
:101A100010227047D0F8BC320020C3F8041270477F
:101A2000D0F8BC2292B110B5D2F814420CB101200A
:101A300010BD0123C2F81432D2F81032D2F80822B5
:101A4000C362812114F0ECF8204610BD03207047DA
:101A5000D0F8BC2210B58AB1047CD2F8042234B18B
:101A600040230121002414F0E9F8204610BD4FF472
:101A70000073012114F0E2F8204610BD0324204633
:101A800010BD00BF38B5D0F8BC52A5B190F89C325B
:101A9000032B02D00024204638BD2C7D14B1012434
:101AA000204638BD13460A4601212975812114F0CC
:101AB000B7F8204638BD0324204638BDA0B1D0F881
:101AC000B83213B10023C0F8B832D0F8CC3213B119
:101AD0000023C0F8CC3209B1C0F8B412012380F859
:101AE0009C32027013F0F4BF0320704730B583B00E
:101AF0000024ADF8064059B18B6AC0F8B81205460B
:101B00000DF106009847C5F8CC02204603B030BD61
:101B1000032003B030BD00BF14F018B8D0F8B832BD
:101B20000BB11B6818470320704700BF08B5D0F8F9
:101B3000B8320BB15B689847002008BD38B5044641
:101B400000F2AA25284600F087FB94F8AA12B4F800
:101B5000B022C4F898220123C4F8943201F01F0384
:101B6000012B09D0022B13D063B1204601F0800174
:101B7000BDE8384014F016B829462046BDE8384084
:101B800000F09ABA29462046BDE8384000F0F6B881
:101B900029462046BDE8384000F0BEBA70B505467B
:101BA00039B91346D0F89422032A0C460ED00020EF
:101BB00070BDD0F8B8329B6933B190F89C22032AEB
:101BC00002D1BDE870401847032070BDD0E957121C
:101BD00091420DD8D0F8B8321B6923B190F89C22FD
:101BE000032A00D19847284600F0A4FB0020DFE735
:101BF000891A8A4228BF0A46C0F85C11194600F0CB
:101C000091FB204670BD00BF70B5044659B913461C
:101C1000D0F89422022A16D094F8A032012B4FF06B
:101C200000000DD070BDD0F8B8325B6933B190F8C8
:101C30009C22032A02D1BDE870401847032070BDE2
:101C400084F8A00270BDD0E90726B2420D4616D82E
:101C500024D0D4F8B832DB681BB194F89C22032A54
:101C600019D08021204613F09DFF204600F06EFB26
:101C700094F8A032012B4FF00000D3D1E0E7921B83
:101C8000C261194600F038FB2B462A4629462046F9
:101C900013F0D4FFC0E720469847E2E783699A42F1
:101CA000D7D8D0F898229342D3D20A4600F024FB2A
:101CB000C4F89852E8E700BFD0F8BC3200210122F6
:101CC00070B5044680F89C22C0F894124160C0F8B8
:101CD000A4121BB1D0F8B8325B68984740250022A7
:101CE00011462B460126204613F03EFFA4F86461FE
:101CF000C4F860512B4600228021204613F034FFA7
:101D0000A6842562002070BD01740020704700BFCA
:101D100090F89C2280F89D22042380F89C320020B9
:101D2000704700BF90F89C32042B04BF90F89D329E
:101D300080F89C320020704790F89C22032A01D042
:101D40000020704708B5D0F8B832DB6903B1984776
:101D5000002008BD00207047002070470020704719
:101D6000D0F8B822012180F89C122AB108B5526837
:101D700001799047002008BD00207047F0B50C782D
:101D800004F06004202C83B00E4605460ED0402C93
:101D90000CD0A4B18021284613F004FF002128466E
:101DA00013F000FF0024204603B0F0BDD5F8B83290
:101DB0009B683146284603B0BDE8F04018474F788D
:101DC000092FE7D801A353F827F000BF2B1E000806
:101DD000591E0008951D0008771E0008951D000873
:101DE0007F1E0008B71E0008951D0008D31E0008BE
:101DF000F51D00088E78AF4F012E3E7000F237813E
:101E000090F89C32022B00F02081032B00F0FA8026
:101E1000802113F0C7FE0021284613F0C3FE397855
:101E20002846FFF783FE0324BDE790F89C32013B70
:101E3000022B65D8CB88022B62D1D0F8A4320122C4
:101E4000C2600BB10323C360022205F10C012846D6
:101E500000F044FA3C46A6E790F89C32013B022B86
:101E60004ED84B88012B9ED10023C5F8A4322846BA
:101E700000F060FA97E74B88012B94D1F5E78B8847
:101E8000002B3DD1CB88002B3AD14E887F2E37D8FE
:101E900090F89C32032B33D0F1B280F89E1213F0ED
:101EA000B1FE284600F046FA002E00F0FE80022324
:101EB00085F89C3277E74A880023ADF80630130A8C
:101EC000013B062B1CD8DFE803F06C5F4C1B1B4268
:101ED0002600CA88012A13D190F89C32022B00F206
:101EE0008A80002B3FF456AF0146002341F8083F9B
:101EF00000F0F4F957E7D0F8B4325B68002B5DD1FD
:101F00008021284613F04EFE0021284613F04AFE99
:101F1000204603B0F0BD037C002BF1D1D0F8B832DD
:101F20000DF106001B6B984707234370F288002AC7
:101F30009DD0BDF80630002BE2D09A4228BF1A4649
:101F400001462846ADF8062000F0C8F92BE7037CCF
:101F5000002BD5D1D0F8B8320DF106005B6B984755
:101F6000E4E7D2B2052ACBD801A353F822F000BF90
:101F7000F71E0008EB1F0008DF1F0008D31F000832
:101F8000C71F0008B31F0008037C002B40F08480AB
:101F9000D0F8B8320DF106009B6A984702234370CF
:101FA000C4E7D0F8B432007C1B680DF106019847F5
:101FB000BCE7D0F8B4329B69002BA1D0287C0DF18E
:101FC00006019847B2E7D0F8B4325B69002BF5D12F
:101FD00096E7D0F8B4321B69002BEFD190E7D0F828
:101FE000B432DB68002BE9D18AE7D0F8B4329B68C1
:101FF000002BE3D184E7032B7FF4CCAE011D00F06E
:102000006DF9D0E6002E3BD0416801293FF42FAF97
:10201000C9B2FFF78BFD397869602846FFF77EFD6E
:10202000064600283FF423AF8021284613F0BAFD6E
:102030000021284613F0B6FD29792846FFF776FDE2
:10204000022385F89C323446ADE6002E3FF40FAFF4
:1020500001214160FFF762FD044600287FF450AF84
:10206000284600F067F9032385F89C329BE680211F
:1020700013F098FD0021284613F094FD032492E606
:102080000223314680F89C324660FFF74FFD284618
:1020900000F050F9344686E6D0F8B8320DF106006B
:1020A000DB6A98470223437040E7012385F89C329E
:1020B00079E600BFC405002038B50B7803F0600254
:1020C000402A0D4604460BD05B0609D5802113F04B
:1020D00069FD0021204613F065FD0025284638BD26
:1020E00094F89C32013B022B12D82B79012B0FD88C
:1020F000D4F8B83229469B6820469847EB880546B5
:10210000002BEBD10028E9D1204600F013F9E5E7D8
:1021100080212046DBE700BF70B50B7803F0600339
:10212000202B0D4604460CD0402B0AD08BB18021C9
:10213000204613F037FD0021204613F033FD002028
:1021400070BDD4F8B832294620469B68BDE870407F
:1021500018476B788A88012BD1B23BD0032B28D04B
:10216000002BE4D190F89C32022B51D0032BDED10E
:1021700001F00F0303EB8303120600EB830356D435
:10218000B3F86431002BD2D001F07F03142505FB96
:10219000030505F5AA752BB1204613F01FFD002895
:1021A00054D001232B6002222946204600F096F8E5
:1021B000C5E790F89C32022B21D0032BB7D16B8856
:1021C00023B94A0602D0EB88002B41D0204600F00C
:1021D000B1F8B4E790F89C32022B10D0032BA6D1B3
:1021E0006B88002BABD14E062DD1204600F0A2F813
:1021F000D4F8B83229469B68204698479FE74B069B
:1022000095D013F0CFFC8021204613F0CBFC96E74D
:1022100048068CD111064CBF04F1140104F5AA71D3
:1022200000230B600222204600F058F887E79B8CC1
:10223000002B3FF47CAF01F07F035D1C05EB8505AF
:1022400000EB8505A7E713F0BBFCCEE72860AAE703
:1022500013F0A8FCBAE700BF0B7803704B7843700B
:102260004B8843808B888380CB88C380704700BFB6
:1022700010B58021044613F095FC20460021BDE8EE
:10228000104013F08FBC00BF18B3037830B40BB309
:102290000446C0F1010C04EB0C0314F8015FDBB23F
:1022A000002DF8D101335B00DCB2138003230C70E6
:1022B0004B7004785CB1022300255A1CD2B2CC5476
:1022C0008D5410F8014F0233DBB2002CF5D130BC35
:1022D0007047704702242346E7E700BF08B513465E
:1022E0000A460221C0E90633C0F89412002113F017
:1022F00097FC002008BD00BF08B513460A46002120
:1023000013F08EFC002008BD08B513460A460321D1
:10231000C0E95633C0F89412002113F08FFC00205E
:1023200008BD00BF08B513460A46002113F086FC1D
:10233000002008BD08B504220023C0F894221946E5
:102340001A4613F06DFC002008BD00BF08B5052239
:102350000023C0F8942219461A4613F06FFC00209F
:1023600008BD00BF38B50E4A0E4B12781B680546F3
:102370004FF47A70B0FBF2F0B3FBF0F000F09AFC8F
:1023800008B90F2D01D9012038BD0446024629465F
:102390004FF0FF3000F030FC034B20461D6038BD8D
:1023A0000F010020A40300201001002008B50B4BF2
:1023B0001A6842F400721A601A6842F480621A6065
:1023C0001A6842F480721A60032000F0F7FB0220C2
:1023D000FFF7C8FF13F014F9002008BD003C0240CD
:1023E000034A044B11681B780B441360704700BF0D
:1023F000C80500200F010020014B1868704700BF7E
:10240000C805002038B50446FFF7F6FF631C0546F3
:1024100002D0044B1B781C44FFF7EEFF431BA34282
:10242000FAD338BD0F010020014BD3F8100A7047D2
:102430000070FF1F014BD3F8140A70470070FF1F94
:10244000002800F0478138B5A64A03689342044645
:102450000CD002F58072934208D002F5807293424C
:1024600004D0A14840F2431108F0D0F9636833F476
:10247000403304D09C484FF4A27108F0C7F9A36818
:1024800033F0407304D0984840F2451108F0BEF98B
:102490002369012B79D8237E012B6AD8A36A33F0F4
:1024A000407223F0807114D0B2F1806F11D0B2F17C
:1024B000006F0ED0B1F1406F0BD0B3F1606F08D058
:1024C00003F17143012B04D987484FF4A47108F03C
:1024D0009DF9E36833F4006322D1E369013B0F2BDC
:1024E00027D894F83030012B2CD86369022B31D8CF
:1024F00094F82030012B36D87C4BA26A9A4204D043
:10250000E36A33F0405340F0D680256C002D45D06F
:10251000236CDB064BD5002384F83C30012038BD0A
:10252000714840F2491108F071F9E369013B0F2B42
:10253000D7D96D484FF4A57108F068F994F8303098
:10254000012BD2D9684840F24B1108F05FF963695A
:10255000022BCDD964484FF4A67108F057F994F8CE
:102560002030012BC8D9604840F24D1108F04EF9D7
:10257000C2E740F247115C4808F048F9A36A33F01B
:10258000407223F08071A4D08EE757484FF4A371B6
:1025900008F03CF9237E012B80D9EAE7204607F0BA
:1025A000BFFD6564236C84F83C50DB06B3D4236C18
:1025B0004F4A23F4885323F0020343F002032364B9
:1025C0005168236821F440315160516860680143CB
:1025D00051605A682569A06822F480725A6059686F
:1025E00041EA05215960596821F0407159605A68E3
:1025F00002435A609968E06821F4006199609A6822
:10260000A16A02439A60394A91425AD09868E56AB1
:1026100020F0706098609A6811439960996821F081
:10262000405199609A682A439A609A6822F002029F
:102630009A609A68217E42EA41029A6094F82020CA
:10264000002A49D0626A013A072A53D8596841F4EE
:1026500000615960596821F460415960596841EA44
:1026600042325A60DA6AE169656922F47002DA621C
:10267000DA6A013942EA0152DA62996821F400719A
:102680009960996894F8302041EA422199609968EC
:1026900021F4806199609A68002042EA85229A605C
:1026A0006064236C23F0030343F0010323640023DD
:1026B00084F83C3038BD0C4840F2511108F0A6F8BF
:1026C00023E79A6822F070629A609A6822F040527A
:1026D0009A60AAE7012070475A6822F400625A60A3
:1026E000C0E700BF00200140A4A001080100000FC6
:1026F00000230140044840F2757108F087F8626ACF
:102700002368013AA2E700BFA4A0010810B5037E28
:1027100082B00022012B0446019204D93E4840F2C7
:10272000044108F073F8E36A33F0405304D03A48A8
:1027300040F2054108F06AF894F83C30012B60D073
:102740000123226884F83C309368D90714D4334BB2
:1027500033481B689168A0FB03039B0C03EB430306
:1027600041F0010191600193019B2BB1019B013B61
:102770000193019B002BF9D19368DB0733D5236CC0
:1027800023F4E06323F0010343F48073236453686C
:10279000580505D5236C23F4405343F48053236438
:1027A000236C13F480531CBF636C23F00603636433
:1027B00000216FF0220384F83C101360536819491C
:1027C00043F0806343F0200353604B6813F01F0F06
:1027D000154B0BD19A420BD003F580739A4217D058
:1027E000124B9A4210D0002002B010BD9A42FAD18A
:1027F000906810F04050F6D1936843F080439360A6
:10280000F2E7022002B010BD4B68DB06EBD4EFE725
:102810004B68D906ECD0E6E7A4A00108A403002089
:1028200083DE1B43002301400020014000220140C1
:102830001A4A0368934210B504460CD002F5807220
:10284000934208D002F58072934204D0144840F2BB
:10285000764107F0DBFF94F83C30012B1CD0236855
:10286000012284F83C209A6822F001029A609A685A
:10287000D2070DD45A6822F0806222F020025A60FA
:10288000236C23F4885323F0010343F001032364F2
:10289000002084F83C0010BD022010BD0020014043
:1028A000A4A001080368D86C704700BF704700BF40
:1028B000704700BF38B5037E012B044604D9574842
:1028C00040F29D4107F0A2FFE369013B0F2B00F2AC
:1028D0008D806369022B00F2838023681A6859682F
:1028E000900701D58A0653D41A685968520701D552
:1028F0000D061BD41A685968D00701D54A0606D4BC
:102900001A685968900601D54A0175D438BD1A680D
:10291000D507F5D5236C43F4803323642046FFF7B5
:10292000C5FF23686FF001021A60E9E7226CD00648
:1029300003D4226C42F4005222649A6812F4401FBD
:102940001ED19A6B12F4401F02D09A68510517D419
:102950005A68520514D49A6812F0405F10D1227E52
:1029600072B95A6822F080025A60236C23F48053B3
:102970002364236CDD0503D4236C43F0010323643B
:10298000204600F019F923686FF00C021A60B1E7D5
:10299000226CD50603D4226C42F4007222649A6839
:1029A00012F0405F14D1227E92B9DA6A12F4700FED
:1029B0002FD15A6822F020025A60236C23F48073CE
:1029C0002364236CD90403D4236C43F001032364F0
:1029D000204607F0F5FB23686FF012021A6083E7C8
:1029E0000E4840F29F4107F011FF76E70B4840F296
:1029F0009E4107F00BFF6CE7626C6FF0200542F020
:102A00000202626420461D60FFF752FF23681D60CA
:102A100038BD9A685005DBD4CBE700BFA4A00108FD
:102A200070B50B6882B00022122B0C46019205464D
:102A300000F2A0806368013B0F2B00F29580A36831
:102A4000072B00F2848095F83C30012B00F0898040
:102A5000012385F83C3020682B68092829D819699A
:102A6000A26800EB40064FF0070C0CFA06FC21EAC6
:102A70000C0119611969B2400A431A616268062A99
:102A800001462BD802EB82025C6B053A4FF01F0C1B
:102A900091400CFA02F224EA02025A635A6B114383
:102AA0005963414A93422CD0002085F83C0002B083
:102AB00070BD81B201EB4102DE68A2F11E0C07225B
:102AC00002FA0CF226EA0202DA60A268DE6802FA72
:102AD0000CF23243DA606268062AD3D90C2A02EB80
:102AE00082024DD81C6B233A1F26914006FA02F24F
:102AF00024EA02021A631A6B11432B4A19639342A8
:102B0000D2D1122849D0A0F11003012BCCD8274AEA
:102B10005368102843F400035360C5D1244B02F1DD
:102B200046721B6802F52E3202F28332A2FB0323A7
:102B30009B0C03EB83035B000193019B002BB3D041
:102B4000019B013B0193019B002BF9D1ACE7194894
:102B500040F25A6107F05AFE95F83C30012B7FF4A1
:102B600077AF022002B070BD124840F2596107F001
:102B70004DFE64E70F484FF4CB6107F047FE59E77D
:102B8000DC6A413A1F26914006FA02F224EA020268
:102B9000DA62DA6A1143D96283E7D2F8043343F484
:102BA0008003C2F804337FE7002001400023014086
:102BB000A4030020A4A00108704700BFC31E042B7B
:102BC00010B504460ED80A4A2302D4684FF6FF0116
:102BD00003F4E0630C40234343F0BF6343F400334A
:102BE000D36010BD0348922107F010FEEBE700BF51
:102BF00000ED00E0D8A001080F2A70B51646054682
:102C00000C4637D80F2C30D81D4BDB68C3F302239A
:102C1000C3F10700042803F1040228BF0420062A98
:102C200018D9033B4FF0FF329A4026EA02064FF0D4
:102C3000FF31814024EA01049C40002D44EA06044F
:102C40000BDB05F16045240105F56145E4B285F82B
:102C5000004370BD00263346E9E70A4B05F00F0537
:102C600024012B44E4B21C7670BD0748AB2107F069
:102C7000CDFDC9E70448AA2107F0C8FDC2E700BF9F
:102C800000ED00E0FCEC00E0D8A00108002809DB22
:102C90004109064A00F01F00012303FA00F042F840
:102CA000210070470248BE2107F0B0BD00E100E0FE
:102CB000D8A001080138B0F1807F10D210B44FF0D5
:102CC000E023084C58614FF0F00C84F823C0002238
:102CD000072110469A615DF8044B19617047012085
:102CE000704700BF00ED00E0D8B10F4B02689A4278
:102CF00010B5044604D00D4840F2151107F086FDCA
:102D0000237903F0FF023BB100230221012221714C
:102D100023612271184610BD6271204607F0A8FB9E
:102D2000F2E70120704700BF0074004010A10108C5
:102D3000704700BF03685A6B910410B5044603D472
:102D40005A6B920013D410BD0422027102694FF431
:102D5000005142F00102026159631A6822F4805264
:102D60001A60FFF7E5FF23685A6B9200EBD5042247
:102D7000227122694FF0005142F002022261596330
:102D80001A6822F0805220461A60BDE8104000F018
:102D900051B800BF0B6870B5164633F004020D46FB
:102DA000044612D023F00802242A0ED023F0100289
:102DB0000C2A0AD023F02002142A06D03C2B04D07F
:102DC0001B4840F2563107F021FD6B6833F00203D7
:102DD00004D0174840F2573107F018FD36F01003C1
:102DE00004D013484FF4567107F010FD6379012B9E
:102DF0001BD002232371D5E90030216803430A6800
:102E000040F6FE70B04022EA0002B34013430B606C
:102E10000B68C02202FA06F623EA06060022012306
:102E20000E6023716271104670BD022070BD00BF3C
:102E300010A10108704700BF38B50446FFF7DCFA5F
:102E4000002C00F012812368A74A9342054631D036
:102E5000183293422ED0183293422BD0183293421C
:102E600028D01832934225D01832934222D01832FB
:102E700093421FD0183293421CD002F556729342EF
:102E800018D01832934215D01832934212D018320B
:102E900093420FD0183293420CD01832934209D08B
:102EA0001832934206D01832934203D08F48B8218B
:102EB00007F0ACFC636833F0C06306D0B3F1006F79
:102EC00003D08A48B92107F0A1FCA36833F040027F
:102ED00040F09680E36833F4007340F09D802369EE
:102EE00033F4806340F0A180636933F4006203D05F
:102EF000B3F5805F40F0A580A36933F4005203D09E
:102F0000B3F5804F40F0A780E36933F0200206D08C
:102F1000B3F5807F03D07548BF2107F077FC236AA3
:102F200033F4403303D07148C02107F06FFC636A6B
:102F3000DBB1042B05D06D48C12107F067FC636A43
:102F40009BB1A36A032B00F2B180E36A33F0C07334
:102F500003D06648C72107F059FC236B33F4C00344
:102F600003D06248C82107F051FC236802220021E7
:102F700084F8341084F835201A6822F001021A60AF
:102F800005E0FFF739FA401B052853D823681A6873
:102F9000D107F6D4D4E90120E16802430A43D4E919
:102FA0000451A0692A430A43E1691D6802430A43A8
:102FB0004F492940256A2A430A43616A042956D0A9
:102FC0001A605A6922F007021143D8B2494A59617E
:102FD0001038A2FB00521209474923F47F73895C21
:102FE000E16523F003035F2888BF04333F228A4052
:102FF000A36500209A600123606584F8353038BDF0
:10300000802B3FF467AF3948BA2107F0FFFBE36834
:1030100033F400733FF463AF3448BB2107F0F6FB91
:10302000236933F480633FF45FAF3048BC2107F07D
:10303000EDFB59E703232022626584F835301846FA
:1030400038BD2A48BD2107F0E1FBA36933F40052E3
:103050003FF45AAF54E72548BE2107F0D7FBE36998
:1030600033F020023FF45BAF52E7012038BDD4E9D2
:103070000B5129430A431A605969A26A21F00701DA
:10308000114341F00401002D9FD0A0B1B0F5005FC5
:103090001BD0022A03D9032A97D1EA0195D501232F
:1030A0004022626584F83530184638BD0F48C62185
:1030B00007F0ACFB49E7012A03D032F0020284D1C9
:1030C000EBE7B5F1C07F80D1E9E7032A3FF67DAF9A
:1030D00001A050F822F000BF9F3000089B3000088C
:1030E0009F300008C33000081060024044A101086E
:1030F0003F8010F0ABAAAAAA78A1010890F8353059
:10310000022B03D08023436501207047026805230A
:1031100080F83530136823F00103002013607047F6
:103120002DE9F04182B0744A866D15680023019341
:10313000C36D346808229A402242804604D0016858
:103140000F68780700F18A8001229A40224204D059
:10315000D8F800104969090678D404229A4022421E
:1031600004D0D8F8001009688F0767D410229A405D
:10317000224204D0D8F800100F68380749D4202222
:103180009A40224217D0D8F800100C68E00612D5F9
:10319000B26098F83520052A73D00B6813F4802F9D
:1031A0000B6800F09080190340F19B80D8F83C3008
:1031B0000BB140469847D8F854303BB3D8F8543058
:1031C000DA071BD5D8F800204C49052388F835309C
:1031D0001368A1FB051523F00103AD0A136002E09B
:1031E0001368DB0704D5019B0133AB420193F7D988
:1031F0000022012388F8342088F83530D8F84C3084
:1032000023B1404602B0BDE8F041184702B0BDE826
:10321000F081B2600A6812F4802F0A682AD1D705BB
:1032200003D40A6822F008020A60D8F84020002A75
:10323000A5D040469047D8F85C30A0E7B260D8F8F7
:10324000542042F00402C8F854208FE7B260D8F846
:10325000542042F00202C8F854207EE70F6827F09D
:1032600004070F60B260D8F8542042F00102C8F899
:10327000542069E71203D8D5D8F84820002AD8D1BD
:103280007DE70A6822F016020A604A6922F080028D
:103290004A61D8F8402052B30A6822F008020A6056
:1032A0003F2202FA03F3D8F85010B3600022012342
:1032B00088F8342088F835300029A7D0404602B07D
:1032C000BDE8F041084713F480737FF46FAF0A68DC
:1032D00022F010020A60012288F8343088F8352084
:1032E00064E7D8F84430002B7FF463AF63E7D8F885
:1032F0004820002AD0D1D3E7A4030020B5814E1B7B
:103300002DE9F04FB14B984283B00746894623D050
:1033100003F5806398421FD003F5806398421BD069
:1033200003F58063984217D003F58063984213D069
:1033300003F5806398420FD003F5806398420BD069
:1033400003F58063984207D003F58063984203D069
:103350009F48B32107F05AFAD9F800309AB2002AF0
:1033600000F0C8801B0C1B04002B40F0C380D9F870
:103370000430032B17D9A3F11102012A13D995495F
:1033800023F400128A420ED001F580118B420AD03C
:10339000A1F570218A4206D08F4A934203D08C480F
:1033A000B52107F033FAD9F80830022B00F2EC808F
:1033B0000026DFF848A2354605E00135102D06F15C
:1033C000020600F09480D9F800300124AC4004EAF1
:1033D000030B34EA0303F0D1D9F8042022F01001E2
:1033E0004B1E012B40F28B804FF0030808FA06F8C1
:1033F0006FEA0808F868D9F8083000EA0800B34016
:1034000003430229FB6000F09380396802F0030354
:1034100001EA0808B34043EA08033B60D300CCD577
:103420006E4B00210191596C41F4804159645B6CF1
:1034300003F48043019325F0030303F1804303F574
:103440009C3305F0030401999868A4000F21A14062
:1034500020EA01015D4887421ED0574500F08A806E
:103460005F48874200F08B805E48874200F0918081
:103470005D48874200F092805C48874200F093806C
:103480005B48874200F094805A4887420CBF07206F
:10349000082000FA04F421439960574B1968564BF1
:1034A000D4036FEA0B0054BF01404BEA01011960DD
:1034B00059689303504B54BF01404BEA01015960D6
:1034C00099684D4BD40254BF01404BEA0101996009
:1034D000DB68920205F10105474A54BF03404BEAFD
:1034E0000303102DD36006F102067FF46CAF03B026
:1034F000BDE8F08F3648B42107F088F937E7D9F8EE
:103500000C30032B2BD8B8684FF0030808FA06F8E4
:1035100020EA0800B3400343BB607B6823EA04034E
:10352000C2F30014AC401C436FEA08087C6061E7FA
:10353000D9F810100D2901D90F293ED1E80807EB61
:10354000800005F00703046A9B004FF00F0C9940C0
:103550000CFA03F324EA03030B43036255E7C82183
:103560001B4807F053F9D9F80420D9F80C3022F0A1
:103570001001C8E7012000FA04F421438CE702207F
:1035800000FA04F4214387E71148B62107F03EF919
:103590000EE7032000FA04F421437DE7042000FA3B
:1035A00004F4214378E7052000FA04F4214373E78B
:1035B000062000FA04F421436EE7E021044807F0F6
:1035C00025F9D9F81010D9F80420B7E70000024017
:1035D00080A10108000011100000221000380240F4
:1035E00000080240000C024000100240001402409B
:1035F00000180240001C0240003C01400004024050
:1036000038B505460C4629B12B691C4214BF012070
:10361000002038BD02484FF4BF7107F0F7F8F3E718
:1036200080A1010870B5064615460C4661B1012D12
:1036300003D805B92404B46170BD06484FF4D071B5
:1036400007F0E4F8B46170BD024840F29F1107F042
:10365000DDF8ECE780A1010838B505460C4641B11C
:10366000426902EA010331EA020218BF816107D010
:1036700038BD05484FF4DB7107F0C8F86B69234685
:103680001B04AB6138BD00BF80A10108F0B58BB051
:10369000002800F091800468B4F1A04F054607D0DF
:1036A000474B9C4204D04748872107F0AFF82C686D
:1036B00095F8BD3303F0FF02002B76D0204603239C
:1036C00085F8BD33E36B2E4613F4807308BF2B617E
:1036D00005F0B2FD56F810EBB446BCE80F006C469E
:1036E0000FC4BCE80F000FC49CE8030084E803008B
:1036F0002F1D97E80E00704605F0B2FC044630B16D
:1037000001240223204685F8BD330BB0F0BD0146ED
:10371000286805F099FD686858B322464FF0010EFD
:103720002146C2EBC20305EB830302F1010C83F8CF
:103730003C20A3F842205FFA8CF28242C3E91111C7
:1037400083F83DE083F83F101965EAD30022C4EB0B
:10375000C40305EB8303611C83F8FC41CCB28442B3
:10376000C3E9812283F8FD2183F8FF21C3F81022E9
:10377000EDD30FCE6C460FC40FCE0FC496E80300F6
:1037800084E8030097E80E00286805F075FD0446FC
:103790000028B5D1012385F83800286885F8BD33A5
:1037A00006F07EF920460BB0F0BD284685F8BC2314
:1037B00012F0ECF8286882E7012420460BB0F0BD37
:1037C00000000440B4A1010810B590F8BC33012BEF
:1037D0000446006816D0A36A0122934284F8BC23F1
:1037E00008D005F021FD206806F04AF9002084F891
:1037F000BC0310BDA3699342F3D0836B43F48033C1
:103800008363EEE7022010BD2DE9F04F076887B013
:103810000446384606F082F910B107B0BDE8F08FD3
:103820008346206806F04CF90028F6D0206806F0A0
:1038300047F910F0020F20681EBF436903F002032E
:10384000436106F03DF910F0100F206812D0836933
:1038500023F0100383613D6AC5F34343022B05F057
:103860000F0600F04382062B00F09881836943F035
:103870001003836106F024F910F4002F206840F053
:10388000B48006F01DF910F4802F20685AD106F09C
:1038900017F9002842DB206806F012F9010532D43E
:1038A000206806F00DF9C30400F11581206806F0C8
:1038B00007F910F4005F206840F0F68006F000F988
:1038C000070700F1E880206806F0FAF8C60200F168
:1038D000D880206806F0F4F8850200F1C8802068DE
:1038E00006F0EEF8400000F1B980206806F0E8F834
:1038F000410792D523685D686A0700F118825A680B
:103900002A435A6089E7D7F80838DA0700F10B82B2
:103910002068436903F400634361C2E7D7F80428D1
:1039200022F00102C7F8042894F8F433012B00F0C8
:103930002E81204612F0B8F82068436903F0004356
:103940004361A9E706F0C8F880462068B8F1000F87
:103950009DD0CDE9027B264607F510694FF0000A9D
:1039600009E05FEA58080AF1010A06F11C0609F1AC
:10397000200900F0288118F0010FF2D05FFA8AF7D1
:10398000394606F0BBF8C307054615D50299012054
:10399000D1F834380AF00F0200FA02F223EA0203E7
:1039A000C1F834382169C9F80800814200F0C481A7
:1039B0003946204612F03CF8280744BF0823C9F8CE
:1039C0000830E90644BF1023C9F808306A0644BF2E
:1039D0004023C9F80830AB0744BF0223C9F80830B8
:1039E000280600F12D812068BBE706F06DF805463A
:1039F0002068002D3FF445AF07F53066A2464FF032
:103A00000008029708E06D0808F1010806F1200699
:103A10000AF11C0A00F0D580EF07F4D55FFA88F7A9
:103A2000394606F061F8814619F0010F206840F030
:103A3000E88019F0080F40F0C98019F0100F1CBF82
:103A40001023B36019F0200F1CBF2023B36019F4BA
:103A5000005F1CBF4FF40053B360D4E7204612F060
:103A60002FF82068436903F0804343613EE7204616
:103A7000002112F01DF82068436903F4001343612C
:103A80002EE72046002112F017F82068436903F45E
:103A9000801343611EE7204611F0D4FF206843697C
:103AA00003F0080343610FE706F03CF8206805F0D7
:103AB000E7FCE060256800F0D9FE227B014628463D
:103AC00005F038FB204611F0C1FF2068436903F47C
:103AD00000534361F2E6D7F80438206823F001036D
:103AE0001021C7F8043805F0B9FC606807F50065D7
:103AF00000B307F510634FF67F3199601A6822F41E
:103B000000121A601A6842F000621A60C3F80812C4
:103B1000D3F8002222F40012C3F80022D3F80022C6
:103B20000BF1010B42F000628345C3F8002203F160
:103B30002003E2D1EB69226B43F00113EB61DAB9A8
:103B40006B6943F4005343F02B036B612B6943F023
:103B50000B032B61D7F80038217C206823F4FE6327
:103B6000C7F8003804F5717205F0EEFF206843696C
:103B700003F4805343619AE6D5F8843043F00B0395
:103B8000C5F884306B6C43F00B036B64E2E70021F3
:103B900084F8F413204600F0C5FACDE6082204F5B7
:103BA00071713846C6EBC60605F0F0FE04EB8602DE
:103BB000C5F30A13D2F8141220680B44C2F8143269
:103BC00054E6029F5DE6DDE9027B60E60823B36010
:103BD000026C00EB48138F48D3F8081B824203F5B0
:103BE000306340F2BB800A0402D54FF400429A6071
:103BF000204611F00DFF2169012900F0DA802068CC
:103C00001BE70122B2602169D0F840C000F53062A4
:103C100002EB48120129936800F0A5807E498C458B
:103C200000F0BA80B8F1000F04D1D4F81022002AB5
:103C300000F0EA802046394611F0F0FE2068F8E6F0
:103C4000D6E91453D4F800B0AB4258463FF689AEDB
:103C50000BF5106202EB4A1211469646726C8969A6
:103C6000CDF814B0A5EB030C624528BF624689B2BB
:103C70000332B1EB920FC0F08B80CDF81090C146AB
:103C8000A046744619E0736CB16C9D4228BF1D4676
:103C900098F8103000933A46ABB2584605F060FEF3
:103CA000B36CA1692B44B364736D89B22B440335A3
:103CB000B1EB950F736563D3356DAB42A5EB03058F
:103CC000E1D34446C846D4F800B0DDF81090059B17
:103CD0000AF00F0203F500610125D3F8343805FA24
:103CE00002F223EA020358464B633AE647F6F073C2
:103CF0001D423FF4BBADC6EBC60604EB8606C5F31A
:103D00000A12D6F808123846154605F03FFED6F8D6
:103D1000083220682B44C6F80832D6F814322B44F7
:103D2000C6F81432A2E5204611F0A6FEF0E52046C2
:103D300011F0CAFE2368E2E5D6E911231344B36407
:103D4000BAF1000F7FF434AE236D002B7FF430AE58
:103D5000206804F5717205F0F7FE29E6204611F09F
:103D600057FE206869E619071ED52A498C457FF65B
:103D700060AE1F047FF55DAE4FF40043936058E6DC
:103D80004446356DD4F800B0C846DDF8109058466A
:103D90009D423FF6E6AD9AE71904EDD499067FF50A
:103DA00049AF2021916045E7990608D5202393600B
:103DB0003FE6206804F5717205F0C6FE1FE713F0B8
:103DC000280F7FF436AE13498C4501D91B04D3D498
:103DD0001269DAF80412C2F312028A1ACAF814221B
:103DE000DAF808220A44CAF80822B8F1000F7FF472
:103DF00021AFD4F81022002A7FF41CAF04F57172B1
:103E0000012105F0A1FE15E704F57172414605F0A8
:103E10009BFE0FE70A30544F0A31544F90F8BC23F1
:103E2000012A0DD010B504460122006884F8BC2395
:103E300084F8381005F014FE002084F8BC0310BD8F
:103E40000220704710B501F00F0E0906044627D472
:103E50004FF01C0C0CFB0E0C0CF5FE71CEEBCE0CD7
:103E600000EB8C0C00208CF8FD018A604A7881F808
:103E700000E0CB700AB1A1F806E0022B04BF0023DA
:103E80000B7194F8BC33012B18D0012384F8BC3398
:103E9000206805F001FB002384F8BC33184610BDF0
:103EA0001C2000FB0E4000F13C01CEEBCE0004EBE9
:103EB00080004FF0010C80F83DC0D6E7022010BD15
:103EC00001F00F03C3EBC30211F0800F4FF01C0190
:103ED00010B500EB8202044601FB030113D101F58A
:103EE000FE71002082F8FD010B7094F8BC33012BA9
:103EF00012D00123206884F8BC3305F019FB0020A0
:103F000084F8BC0310BD3C31012082F83D000B70E9
:103F100094F8BC33012BECD1022010BD10B501F098
:103F20000F04C4EBC40C00EB8C0C1C21CCF8103239
:103F30000023CCF808228CF8FC41CCF814328CF821
:103F4000FD31036901FB0401012B08BFCCF80C22F1
:103F5000006801F5FE71DAB21CB905F057FC0020CB
:103F600010BD05F047FB002010BD00BF01F00F01A0
:103F7000C1EBC10100EB8101D1F81402704700BF11
:103F800010B501F00F04C4EBC40C00EB8C0C1C2129
:103F9000CCF850300023CCF854300123CCF8482022
:103FA0008CF83C408CF83D30036901FB0401012B87
:103FB00008BFCCF84C2000683C31DAB21CB905F0DF
:103FC00025FC002010BD05F015FB002010BD00BF32
:103FD00038B5436801F00F059D4233D80B060446FF
:103FE0001CD4C1EBC1031C2202FB010100EB8303C3
:103FF00001F5FE71002283F8FD2101238B700D7005
:1040000094F8BC239A421BD0206884F8BC3305F096
:10401000CDFCCDB1002084F8BC0338BDC5EBC50391
:104020001C2101FB050100EB830301223C3183F8D5
:104030003D2001238B700D7094F8BC239A42E3D18C
:10404000022038BD012038BD217C206804F5717242
:1040500005F07AFDDEE700BF426838B501F00F03D6
:1040600093422ED8C3EBC30211F0800F4FF01C0116
:10407000044600EB820201FB030115D101F5FE713C
:104080000020002582F8FD018D700B7094F8BC3380
:10409000012B14D00123206884F8BC3305F0B4FC54
:1040A00084F8BC53284638BD3C310120002582F8F5
:1040B0003D008D700B7094F8BC33012BEAD10220C7
:1040C00038BD012038BD00BF10B40468606A31B942
:1040D00040EA0240A06200205DF8044B7047A36AEA
:1040E000B1F1010C00EB13400BD0002303F14001B0
:1040F00004EB810101334968DBB2634500EB1140F9
:10410000F4D30CF1400C04EB8C0C40EA0240CCF8E8
:1041100004005DF8044B0020704700BF03680020D6
:1041200059627047704700BF002800F059822DE99E
:10413000F04103680F2B82B0044600F23881DD079E
:1041400037D5636833F4803203D0B3F5A02F40F045
:10415000A281A94A936803F00C03042B00F07E812E
:10416000936803F00C03082B00F074816368B3F5C7
:10417000803F00F07D81B3F5A02F00F0FF819E4DC0
:104180002A6822F480322A602A6822F480222A6077
:10419000002B40F07281FEF72FF9064605E0FEF78E
:1041A0002BF9801B642800F298812B689B03F6D4BE
:1041B00023689F0730D5E368012B00F20D81236946
:1041C0001F2B00F212818C4B9A6812F00C0F00F03A
:1041D000F8809A6802F00C02082A00F0EE80E3688A
:1041E000002B00F09681854B834E01221A60FEF76A
:1041F00003F9054605E0FEF7FFF8401B022800F230
:104200006C8133689807F6D53368226923F0F80388
:1042100043EAC203336023681A0700F1AF805D07E9
:1042200044D5A368012B06D9052B04D074484FF45C
:10423000C67106F0EBFA704A136C13F0805340F02D
:10424000FD800193136C43F080531364136C03F0EF
:1042500080530193019B01256A4E3368D80540F1D4
:104260002C81A368012B00F03C81052B00F0BA8162
:10427000614E326F22F001023267326F22F0040287
:104280003267002B40F03281FEF7B6F841F28838F1
:10429000074605E0FEF7B0F8C01B404500F21D815F
:1042A000336F9B07F6D4002D40F07281A06902287D
:1042B00000F2C68000285DD04F4DAB6803F00C03C0
:1042C000082B00F03781022840F07A81E36933F44B
:1042D000800304D04A484FF4EC7106F097FA236A41
:1042E0003F2B00F26781636A323BB3F5BF7F00F278
:1042F0005B81A36A082B00F251814FF4AA7222FA63
:1043000003F3D80740F14A81E36A023B0D2B00F228
:1043100073813A4B384E00221A66FEF76DF8054657
:1043200005E0FEF769F8401B022800F2D6803368EA
:104330009901F6D4D4E90731626A2F4D0B4343EA61
:104340008213D4E90A21520843EA0163013A2B4956
:1043500043EA0243012273600A66FEF74DF8044601
:1043600005E0FEF749F8001B022800F2B6802B6832
:104370009A01F6D5002002B0BDE8F0816369012BF7
:1043800053D8002B40D01D4B1B4E0122C3F8802E6A
:10439000FEF732F8054605E0FEF72EF8401B02282E
:1043A00000F29B80736F9B07F6D5236837E71448AC
:1043B000E82106F02BFA2368C1E65B685E023FF550
:1043C0000EAF0D4B1B689D076AD5E368012B67D0C4
:1043D000012002B0BDE8F081094840F21F1106F04B
:1043E00015FA23691F2B7FF6EEAE05484FF4907146
:1043F00006F00CFAE7E600BF003802400000474232
:10440000E8A10108007000407E4A7F4EC2F8803E5D
:10441000FDF7F2FF054604E0FDF7EEFF401B022822
:104420005BD8736F9F07F7D4BFE778484FF4B0713C
:1044300006F0ECF96369002BE6D0A4E700250BE752
:10444000724840F2CF1106F0E1F9A06900287FF42C
:1044500033AF8FE7536858027FF588AE6A4B1B680D
:1044600099037FF5A5AE6368002B7FF4A1AEAFE79B
:10447000654A136843F480331360FDF7BDFF624E55
:10448000054604E0FDF7B8FF401B642825D83368D3
:104490009A03F7D58CE65D48ED2106F0B7F958E6AA
:1044A000594A2169136823F0F80343EAC1031360F2
:1044B00023681A077FF5B3AE60E7336843F480736F
:1044C0003360FDF799FF07463368D9053FF5C9AE5C
:1044D000FDF792FFC01B0228F6D9032002B0BDE809
:1044E000F081494A136F43F001031367FDF784FF1E
:1044F000454F064641F2883804E0FDF77DFF801BFA
:104500004045EAD83B6F9A07F7D5002D3FF4CEAE71
:104510003EE03C4A3C4E1360FDF76EFF054604E06A
:10452000FDF76AFF401B0228D7D833689907F7D4F4
:10453000236871E601283FF41EAF6B68E26903F45B
:10454000800191427FF444AF226A03F03F0191421F
:104550007FF43EAF616A47F6C0721A408A427FF428
:1045600037AFA26A03F4403191427FF431AFE06A81
:1045700003F07063181A18BF0120FCE6224B1A687A
:1045800042F480221A601A6842F480321A6074E79A
:104590001D4A136C23F08053136487E61B4840F2D6
:1045A000DB1106F033F9AFE618484FF4ED7106F071
:1045B0002DF99EE6154840F2D91106F027F992E64A
:1045C000104B00221A66FDF717FF044604E0FDF7C2
:1045D00013FF001B022880D82B689B01F7D4C9E683
:1045E00001207047084B1A6F42F004021A671A6FD5
:1045F00042F001021A6779E704484FF4EE7106F0C1
:1046000005F986E60000474200380240E8A10108AB
:10461000164908B58B6803F00C03042B1BD0082B3C
:1046200017D14A684B68496813F4800302F03F02CF
:1046300013D10F48C1F38811A1FB0001FCF7E4FA84
:104640000A4B5B68C3F3014301335B00B0FBF3F03B
:1046500008BD074808BD074808BD0648C1F38811D2
:104660000023A1FB0001FCF7CFFAE9E70038024084
:104670000024F40000127A00002800F0DA800368B9
:10468000013B0E2B2DE9F0410D46044600F2C88097
:10469000072D00F2BF806F4A136803F00F03AB428F
:1046A00009D2EBB21370136803F00F03AB4202D0D0
:1046B0000120BDE8F081236898072CD5590704D55F
:1046C00065498A6842F4E0528A601A0704D5624953
:1046D0008A6842F460428A60A16831F0800214D096
:1046E00021F02002902A10D021F04002A02A0CD004
:1046F00021F01002C02A08D0F02906D040F275211E
:10470000564806F083F8A16823685348826822F06F
:10471000F0020A438260DF0725D56368032B00F2AD
:104720009080012B00F087809A1E012A4A4A126865
:104730007CD99107BCD5484EB26822F003021343DE
:10474000B360FDF759FE41F28838074604E0FDF7F3
:1047500053FEC01B40457BD8B368626803F00C036E
:10476000B3EB820FF3D13B4A136803F00F03AB4264
:1047700006D9EBB21370136803F00F03AB4297D165
:1047800023685A0718D5E16831F480520ED021F41D
:104790000062B2F5A05F09D0B1F5C05F06D040F26B
:1047A000BA212E4806F032F8E16823682A48826868
:1047B00022F4E0520A4382601B0718D5226932F4C2
:1047C00080530DD022F40063B3F5A05F08D0B2F59A
:1047D000C05F05D0214840F2C12106F017F82269D8
:1047E0001D498B6823F4604343EAC2038B60FFF7E3
:1047F0000FFF194A1A4C92681A49C2F30312034672
:10480000A25C1948D34000680B60FDF7ABFD0020A7
:10481000BDE8F081114840F2522105F0F7FF3AE778
:104820000E4840F2512105F0F1FF31E7900182D4AA
:104830003EE701207047084A126896033FF57BAFB8
:1048400036E706484FF41F7105F0E0FF636868E73C
:1048500003202EE7003C024000380240E8A1010896
:1048600000370208A403002010010020014B186843
:10487000704700BFA4030020044B05499B68054A0C
:104880000868C3F38223D35CD840704700380240E5
:10489000A403002010370208044B05499B68054A11
:1048A0000868C3F34233D35CD840704700380240F5
:1048B000A403002010370208F0B504460068431E28
:1048C000062B83B000F2BA8010F0050F34D0A36835
:1048D000023B052B00F2B9806368323BB3F5BF7F22
:1048E00000F2BE806E4B6F4E00229A66FDF784FD8B
:1048F000054605E0FDF780FD431B022B00F29B807F
:1049000033681F01F6D4D4E901131B0743EA81136E
:10491000634AC6F8843001239366FDF76DFD614E4E
:10492000054605E0FDF768FD431B022B00F283807E
:1049300033681801F6D5206810F0020079D0E368DA
:10494000B3F5807F2ED0B3F5007F2BD0564A23F4E9
:10495000A021914223F4803024D002F5003223F4C8
:10496000102191421ED0514923F440328A4219D07D
:1049700001F5C02123F488138B4213D04C4B9A428B
:1049800010D003F580239A420CD003F580239A427D
:1049900008D003F58023984204D0464840F61221FF
:1049A00005F034FF3F4B444D002201921A6C42F057
:1049B00080521A641B6C03F080530193019B2B6897
:1049C00043F480732B60FDF717FD064604E0FDF706
:1049D00013FD831B022B2ED82B68D905F7D5314D3B
:1049E000E3682A6F12F4407212D003F440719142CE
:1049F00010D02B6F2A4A0121C2F8401E23F44073C5
:104A00000021C2F8401E2B672B6FDA0739D4E36808
:104A100003F44072B2F5407F28D022498A6822F41C
:104A2000F8128A601F4A116FC3F30B030B43002077
:104A3000136703B0F0BD032003B0F0BD1D4840F67E
:104A4000D91105F0E3FE20683EE71A484FF41E61D5
:104A500005F0DCFE6368323BB3F5BF7F7FF642AF03
:104A6000144840F6E11105F0D1FE3BE70D4882689D
:104A700023F0704121F4407122F4F8120A4382605D
:104A8000D0E7FDF7B9FC41F28837064604E0FDF7B0
:104A9000B3FC801BB842CED82B6F9B07F7D5B6E787
:104AA00000004742003802400003020000030800F3
:104AB000000310001CA2010800700040002800F054
:104AC000A48038B5436833F04003044640F09F802B
:104AD000A3687F2B00F29380E368B3F5004F80F06A
:104AE0008880236933F4C00304D04B484FF48171AC
:104AF00005F08CFE636933F4801304D0464840F21D
:104B0000031105F083FEA36933F4802338D1637F5A
:104B100003F0FF02002B3DD0236853220220CA215C
:104B2000607759625A62DA6855064BD599686268AF
:104B3000256921F4E00121F04001996061699868DC
:104B40002A430A430243E1689A6019611A69A1681D
:104B500042EA01421A61DA6822F08002DA609A6859
:104B600091061CD5196CA06921F4802119641A6C76
:104B700002431A64FF21012259626277002038BD86
:104B800025484FF4827105F041FE637F03F0FF0278
:104B9000002BC1D12277204605F054FEBCE7DA682D
:104BA00022F0A002DA60FDF727FC054605E0FDF7DC
:104BB00023FC401BB0F57A7F14D82368DA6892068C
:104BC000F5D5CFE74FF0FF32DA60FDF715FC05466B
:104BD0002368DA685006A9D4FDF70EFC401BB0F537
:104BE0007A7FF5D92268FF2104235162637701207F
:104BF00038BD094840F2011105F008FE71E706488A
:104C00004FF4807105F002FE66E70120704702480C
:104C1000FF2105F0FBFD5BE754A20108012A2DE905
:104C2000F041174605460E4604D9AB4840F2DA215A
:104C300005F0ECFDF368B3F5003F03D033F48033A7
:104C400040F00181336933F4802304D0A2484FF44B
:104C5000377105F0DBFD2B7F012B00F0398102233A
:104C600001226B772A772B68002F40F081809B68A8
:104C700013F0400F337800F0CA80013B0B2B00F299
:104C8000FE80F37813F0BF0F40F0E98073783B2B80
:104C900000F20F81B2783B2A00F204813378092BAD
:104CA00009D900210A3BDBB2092B01F10101F9D836
:104CB00043EA0113DBB2707809284FEA034309D9AC
:104CC00000240A38C0B2092804F10104F9D840EAE6
:104CD0000410C0B2092A4FEA002009D9A2F10A043F
:104CE000E2B2092A07F10107F8D842EA0714E2B252
:104CF000F47843EA0444044314432B68CA225A62FA
:104D000053225A62DA68510666D504F07F3424F0E3
:104D1000FE441C609968F26821F480219960316931
:104D20000A4399680A439A60DA6822F08002DA60DE
:104D30009A68920613D4DA6822F0A002DA60FDF7CE
:104D40005BFB064606E0FDF757FB801BB0F57A7F5C
:104D500000F2B5802B68DC6814F02004F3D0002248
:104D6000FF200121586269772A771046BDE8F0815B
:104D70009A6812F0400254D0327802F00F03120900
:104D8000013B02EB820203EB4203DBB20B2B6CD83C
:104D9000F37813F0BF0F5CD173781A0902EB82022B
:104DA00003F00F0303EB4203DBB23B2B74D8B17863
:104DB0000B0903EB830201F00F0303EB4203DBB2A9
:104DC0003B2B62D874783378240244EA0344F378A6
:104DD00044EA03440C4390E74FF0FF32DA60FDF7FA
:104DE0000BFB07462B68DA6812F040088DD1FDF7FF
:104DF00003FBC01BB0F57A7FF4D92A68FF21042396
:104E000051626B7785F81C800120BDE8F081172B7B
:104E1000F7707FF63BAF304840F2ED2105F0F6FC2D
:104E200034E73378F2701A0902EB820203F00F03C1
:104E300003EB4203DBB2172BAED9274840F2013116
:104E400005F0E4FCA8E7244840F2DB2105F0DEFC95
:104E5000F8E621484FF43F7105F0D8FC9CE71E4866
:104E60004FF43A7105F0D2FC10E71B4840F2FB21E9
:104E700005F0CCFCF37813F0BF0F8DD0E9E71648AE
:104E800040F2E72105F0C2FCFBE64FF44171124805
:104E900005F0BCFCB17895E70F4840F2033105F00E
:104EA000B5FC84E70C484FF43C7105F0AFFCB278D8
:104EB000F4E6094840F2EF2105F0A8FCEAE62A688A
:104EC000FF21042351626B772C770120BDE8F0812C
:104ED0000220BDE8F08100BF54A20108012A70B58C
:104EE000154606460C4604D91A4840F25D3105F0D5
:104EF0008DFC3368996A1A691B68C2F30E02C4E913
:104F00000112C3F30642C3F30540C3F3062102F0C6
:104F1000400603F07F0320706170A370E670BDB996
:104F2000000902F00F0200EB800002EB40000A09CA
:104F300002EB820201F00F0101EB42011A0902EBC0
:104F4000820203F00F0303EB420320706170A37031
:104F5000002070BD54A20108012AF8B504460E468F
:104F600000F28B80037F012B00F01A81154602238B
:104F7000012202774377002D40F08C804B78D906D0
:104F800003D523F010030A3373703378013B062BEB
:104F900000F2D680F378632B00F2DB807378013B5C
:104FA0000B2B00F2E080B278531E1E2B00F2E5803E
:104FB000F378092B09D900210A3BDBB2092B01F157
:104FC0000101F9D843EA0113DBB296F801C0BCF144
:104FD000090F4FEA03430DD90021ACF10A0C5FFA27
:104FE0008CFCBCF1090F01F10101F6D84CEA011C5F
:104FF0005FFA8CFC092A4FEA0C2C08D90A3AD2B283
:10500000092A05F10105F9D842EA0512D2B2317830
:1050100043EA413343EA0C0343EA02062168CA2209
:1050200053234A624B62CB685A0670D526F07F46FE
:1050300026F0C0064E60CB6823F08003CB608B68FF
:105040009B0612D4CB6823F0A003CB60FDF7D4F904
:10505000064605E0FDF7D0F9801BB0F57A7F67D8EA
:105060002168CD6815F02005F4D00023FF2001222F
:105070004862627723771846F8BD4A4840F28A3181
:1050800005F0C4FB237F012B00F08A80012202235C
:10509000227763773378013B062B7BD8F3781A09A4
:1050A00002EB820203F00F0303EB4203DBB2632B3C
:1050B0006AD873781A0903F00F0302EB8202013BEE
:1050C00003EB4203DBB20B2B04D9364840F2A63186
:1050D00005F09CFBB27802F00F011009013900EBDA
:1050E000800001EB4001C9B21E2905D92D4840F2CC
:1050F000A73105F08BFBB2787378F17836781B0214
:1051000043EA014343EA463343EA020686E74FF0A7
:10511000FF33CB60FDF770F907462168CD6815F0C5
:10512000400583D1FDF768F9C01BB0F57A7FF4D94B
:105130002268FF2104235162637725770120F8BD9F
:10514000184840F2963105F061FBF378632B7FF647
:1051500025AF144840F29A3105F058FB7378013BB3
:105160000B2B7FF620AF0F4840F29B3105F04EFB32
:10517000B278531E1E2B7FF61BAF0A484FF467719F
:1051800005F044FBB27813E7064840F2A53105F07C
:105190003DFB8EE7034840F2963105F037FB7DE793
:1051A0000220F8BD54A20108012A70B51546064632
:1051B0000C4604D919484FF47E7105F027FB33687B
:1051C0005B68C3F30741C3F3042C03F03F00C3F350
:1051D0000722C3F34233E17084F801C02370A0704A
:1051E000CDB9030903EB830300F00F0000EB43008C
:1051F0004FEA1C1C0B090CEB8C0C02F00F0203EBAA
:10520000830301F00F0102EB4C0C01EB430184F826
:1052100001C0A070E170002070BD00BF54A2010861
:10522000132970B50C460646154604D8336850332A
:1052300043F8245070BD054840F26C4105F0E6FA91
:105240003368503343F8245070BD00BF88A2010872
:105250002DE9F04F0D4689B0044691461F46FDF7F3
:10526000CBF8002D00F0858094F83430012B5FFAE4
:1052700083F824D1E26D09EB070100239142A36377
:1052800000F28180626C06462068032184F83410A5
:10529000012AC3624FF4007118BF4FEA492903F095
:1052A000C1FCB0B12368854A9A63A36B1843A0631D
:1052B0000122404684F8342009B0BDE8F08FA36B8A
:1052C00043F000534FF00108A363404609B0BDE826
:1052D000F08F4FF0FF3302937B02069003934FF061
:1052E000010B90232068CDF81CB04FF0020A02A9F0
:1052F000CDE9043A03F048FC5F455BD92068C4F867
:1053000030A0494603F0ACFC00285AD1039B01931E
:1053100040F22A3A05E0FDF76FF8129B801B984295
:1053200039D22268536B13EA0A0F536B55D1190413
:10533000F1D5019B002BEED005F1040B05F12409FA
:1053400000E02268104603F0B5FB0BF8040C010ADC
:10535000020C000E0BF8031C0BF8022C0BF8010CCE
:105360000BF1040BCB45ECD1019B203B2035019385
:10537000D1E7A36B4FF0010843F000634046A363FD
:1053800009B0BDE8F08FA36B404643F00073A36300
:1053900009B0BDE8F08F2368484A9A63A36B0121E6
:1053A00043F000430022A3634FF0030884F8341055
:1053B00022638AE72068C4F830B0494603F040FC15
:1053C000A2E723683D4A9A63A36B01221843002396
:1053D000A06384F83420236377E7DB050AD5012F27
:1053E00008D9636C032B05D0104603F067FC002836
:1053F000E7D12268536B13F0080334D1516B11F0DD
:1054000002013CD1536B98064DD4019F04372F44C1
:10541000043500E02268536B9B0210463AD5AF4238
:1054200038D003F047FB030A05F8040C05F8033CE9
:10543000030C000E05F8023C05F8010CFCF7DCFF3C
:10544000129B801B984205F10405E3D323681B4A95
:105450009A63A36B012143F000430022A36384F805
:105460003410226331E7154B9363A36B012143F0A2
:1054700008030022A36384F83410226325E70F4950
:105480009163A26B012142F00202A26384F83410FE
:1054900023631AE740F23A51012391634FF0000869
:1054A00084F8343011E7054B9363A36B012243F07A
:1054B0002003A36384F83420216306E7FF0540003E
:1054C0002DE9F04F0D4689B0044691461F46FCF782
:1054D00093FF002D71D094F83430012B5FFA83F8DC
:1054E00023D1E26D09EB070100239142A3636ED83B
:1054F000626C06462068032184F83410012AC362D6
:105500004FF4007118BF4FEA492903F08BFBB0B18B
:105510002368634A9A63A36B1843A0630122404641
:1055200084F8342009B0BDE8F08FA36B43F000533A
:105530004FF00108A363404609B0BDE8F08F4FF07B
:10554000FF3302937B0203939023CDE9050004937C
:1055500002A901232068079303F016FB012F494697
:105560004AD920232068236303F098FB002849D1FF
:10557000DDF80CB040F21A3A05E0FCF73DFF129B53
:10558000801B98422BD22068436B13EA0A0F436BAF
:1055900044D15A04F1D5BBF1000FEED005F120093A
:1055A00000E0206855F8043B019301A903F086FA56
:1055B0004D45F6D1ABF1200BDFE7A36B4FF00108AF
:1055C00043F000634046A36309B0BDE8F08FA36BCE
:1055D000404643F00073A36309B0BDE8F08F236831
:1055E0002F4A9A63A16BA1630122002384F834201F
:1055F0004FF0030823639EE710232068236303F022
:105600003FFBB3E72368264A9A63A36B0122184342
:105610000023A06384F8342023638CE7DB0509D5DD
:10562000012F07D9636C032B04D003F047FB00283C
:10563000E8D12068436B13F0080312D1426B12F0DB
:1056400002021AD1436B13F0100321D0144B836371
:10565000A36B012143F01003A36384F83410226389
:1056600069E70F4B8363A36B012143F0080300221A
:10567000A36384F8341022635DE7094A8263A26B56
:10568000012142F00202A26384F83410236352E73E
:1056900040F23A5101228163984684F834204AE767
:1056A000FF054000704700BF38B5846B216D20684E
:1056B00040F23A538363090403F0C2FC054680B10B
:1056C000A06B012228430023A06384F834202363C5
:1056D000A36B204613B907F0D7F938BDFFF7E2FFF7
:1056E00038BD2068294603F03FFAC0F34320012368
:1056F0000538984284F834302563E9D8206803F0EF
:10570000DDFAA36B1843A063E2E700BF2DE9F04187
:1057100004460068256B436B1A0482B01DD52B0725
:1057200000F1C080436BDB056BD54FF4807383635E
:10573000C36B23F4434323F03A03C363C36A23F0E8
:105740000103C362290605D5AA0600F1FA80AB075A
:1057500000F0C98002B0BDE8F081436BDF0523D5BE
:105760004FF480738363C36B23F4434323F03A0302
:10577000C363C36A2E0723F00103C362E2D515F0A9
:10578000220F40F0BE8040F23A538363012200238F
:1057900084F8342020462363AC0700F0AD8007F086
:1057A0007FF902B0BDE8F081436B5F042AD52E0774
:1057B00028D5666A002ECDD0276A07F1040807F1C4
:1057C000240500E0206818F8043C019318F8032C25
:1057D00043EA0223019318F8022C43EA024301939F
:1057E00018F8012C01A943EA026308F104080193A7
:1057F00003F064F9A845E5D12037203EC4E90876D6
:10580000A8E7436B426B40F23A231A42A2D0436BA3
:10581000990703D5A36B43F00203A363436B1A07F5
:1058200003D5A36B43F00803A363436B9B0603D527
:10583000A36B43F02003A363436BDF0603D5A36B85
:1058400043F01003A363436B9E0503D5A36B43F0A2
:105850000803A36340F23A738363C36B23F44E736C
:1058600023F00203C36303F029FAA36B290740EA7C
:105870000300A0634BD42A067FF56CAF15F0300F00
:1058800055D115F0030569D0206C394B0365FDF740
:1058900035FC00283FF45EAF206C02B0BDE8F0415B
:1058A000FFF702BFE66A002E3FF454AFA76A07F184
:1058B000040807F1240500E0206803F0FBF808F86D
:1058C000040C020A030C000E08F8032C08F8023C32
:1058D00008F8010C08F10408A845EDD12037203E56
:1058E000C4E90A7636E72268D36A012123F0080367
:1058F000D362204684F8341007F0CCF802B0BDE83B
:10590000F08103F0DBF9034650B920683BE7012240
:10591000002384F8342020462363FFF7C3FE19E7F1
:10592000A26B13432046A363FFF7BCFEEDE7E06BD9
:10593000104B0365FDF7E2FB00283FF40BAFE06B73
:10594000ABE703F0BBF9034600283FF400AFA26BBE
:1059500013432046A363FFF7A5FEF8E60123A563E2
:10596000204684F83430256307F08EF8F2E600BF55
:1059700079590008A956000838B5846B216D206854
:1059800040F23A538363090403F05AFB054680B1A1
:10599000A06B012228430023A06384F834202363F2
:1059A000A36B204613B907F06FF838BDFFF77AFEF6
:1059B00038BD2068294603F0D7F8C0F343200123FF
:1059C0000538984284F834302563E9D8206803F01C
:1059D00075F9A36B1843A063E2E700BF10B4446FEE
:1059E000230E0B70836FC4F30F224A801A0A42EA17
:1059F0000462DBB24A600B72C46F230E4B72D0F8A4
:105A000080301A0E42EA0422CA60C3F30350C3F383
:105A10000B224FF0010CC3F3460308745DF8044BEE
:105A20004A8200200B7581F815C07047426E10B491
:105A30000346940FC2F383600C704870C2F3016494
:105A4000C2F307408C70C870C2F30720D2B208714D
:105A50004A719A6E140DCC80C2F303440C72C2F3E7
:105A6000C0344C72C2F380348C72C2F34034CC72B6
:105A70000020C2F300340C734873586C00286FD1B7
:105A8000D86E40F6FC7404EA820242EA9072C0F3D7
:105A9000C2640A610C75C0F34252C0F302644C75D3
:105AA0008A75C0F38244C0F3C232CC750A760A69A3
:105AB0000C7E04F007040132023402FA04F45C653F
:105AC0000A7A02F00F0C012202FA0CF29A65520ACD
:105AD00004FB02F24FF40074C3E91724C0F38034CE
