:020000040800F2
:100000000000022091D5000809CE00080DCE00089E
:1000100011CE000815CE000819CE0008000000001F
:100020000000000000000000000000001DCE0008DD
:1000300021CE00080000000025CE000829CE0008CF
:10004000E5D50008E5D50008E5D50008E5D50008A8
:10005000E5D50008E5D50008E5D50008E5D5000898
:10006000E5D50008E5D50008E5D50008E5D5000888
:10007000E5D50008E5D50008E5D50008E5D5000878
:10008000E5D50008E5D500082DCE0008E5D5000827
:10009000E5D50008E5D50008E5D50008E5D5000858
:1000A000E5D5000839CE0008E5D50008E5D50008FB
:1000B00045CE000851CE00085DCE0008E5D5000809
:1000C000E5D50008E5D50008E5D50008E5D5000828
:1000D000E5D5000869CE0008E5D50008E5D500089B
:1000E000E5D50008E5D50008E5D50008E5D5000808
:1000F00075CE000881CE0008E5D50008E5D50008DA
:10010000E5D500088DCE0008E5D50008E5D5000846
:10011000E5D50008E5D5000899CE0008B5CE000861
:10012000E5D50008E5D50008E5D50008C1CE0008F2
:10013000E5D50008E5D50008E5D50008E5D50008B7
:10014000E5D50008E5D50008E5D50008CDCE0008C6
:10015000E5D50008E5D50008E5D50008E5D5000897
:10016000E5D50008E5D50008E5D50008E5D5000887
:10017000E5D50008E5D50008E5D500080000000039
:08018000E5D50008E5D50008F3
:1001900010B5054C237833B9044B13B10448AFF3C1
:1001A00000800123237010BDA8070020000000007C
:1001B00014A4010808B5034B1BB103490348AFF36E
:1001C000008008BD00000000AC07002014A4010856
:1001D00010F8012B11F8013B012A28BF9A42F7D0F1
:1001E000D01A7047034613F8012B002AFBD1181AC6
:1001F000013870470000000000000000000000000F
:1002000001F0FF01102A2BDB10F0070F08D010F8C7
:10021000013B013A8B422DD010F0070F42B3F6D1CB
:10022000F0B441EA012141EA014122F007047FF0E4
:1002300000070023F0E80256083C85EA010586EA3B
:10024000010685FA47F5A3FA87F586FA47F6A5FA77
:1002500087F68EB9EED1F0BC01F0FF0102F0070283
:1002600032B110F8013B013A83EA010313B1F8D12E
:100270000020704701387047002D06BF354603380F
:10028000073815F0010F07D1013015F4807F02BF48
:10029000013015F4C03F0130F0BC0138704700BF99
:1002A00081F0004102E000BF83F0004330B54FEA27
:1002B00041044FEA430594EA050F08BF90EA020F94
:1002C0001FBF54EA000C55EA020C7FEA645C7FEA27
:1002D000655C00F0E2804FEA5454D4EB5555B8BF4A
:1002E0006D420CDD2C4480EA020281EA030382EABB
:1002F000000083EA010180EA020281EA0303362D4D
:1003000088BF30BD11F0004F4FEA01314FF4801C1F
:100310004CEA113102D0404261EB410113F0004F31
:100320004FEA03334CEA133302D0524263EB4303E8
:1003300094EA050F00F0A780A4F10104D5F1200E86
:100340000DDB02FA0EFC22FA05F2801841F10001E1
:1003500003FA0EF2801843FA05F359410EE0A5F1B5
:1003600020050EF1200E012A03FA0EFC28BF4CF0E6
:10037000020C43FA05F3C01851EBE37101F000459C
:1003800007D54FF0000EDCF1000C7EEB00006EEBA9
:100390000101B1F5801F1BD3B1F5001F0CD3490833
:1003A0005FEA30004FEA3C0C04F101044FEA44528A
:1003B00012F5800F80F09A80BCF1004F08BF5FEA11
:1003C000500C50F1000041EB045141EA050130BDF1
:1003D0005FEA4C0C404141EB010111F4801FA4F194
:1003E0000104E9D191F0000F04BF01460020B1FAE9
:1003F00081F308BF2033A3F10B03B3F120020CDA21
:100400000C3208DD02F1140CC2F10C0201FA0CF0FE
:1004100021FA02F10CE002F11402D8BFC2F1200C63
:1004200001FA02F120FA0CFCDCBF41EA0C01904019
:10043000E41AA2BF01EB0451294330BD6FEA040462
:100440001F3C1CDA0C340EDC04F11404C4F120024D
:1004500020FA04F001FA02F340EA030021FA04F35F
:1004600045EA030130BDC4F10C04C4F1200220FAB6
:1004700002F001FA04F340EA0300294630BD21FAF4
:1004800004F0294630BD94F0000F83F4801306BFBA
:1004900081F480110134013D4EE77FEA645C18BFAE
:1004A0007FEA655C29D094EA050F08BF90EA020F45
:1004B00005D054EA000C04BF1946104630BD91EA3D
:1004C000030F1EBF0021002030BD5FEA545C05D140
:1004D0004000494128BF41F0004130BD14F580047F
:1004E0003CBF01F5801130BD01F0004545F0FE41F3
:1004F00041F470014FF0000030BD7FEA645C1ABF28
:10050000194610467FEA655C1CBF0B46024650EA5E
:10051000013406BF52EA033591EA030F41F400218A
:1005200030BD00BF90F0000F04BF0021704730B510
:100530004FF4806404F132044FF000054FF00001E5
:1005400050E700BF90F0000F04BF0021704730B5A6
:100550004FF4806404F1320410F0004548BF40427B
:100560004FF000013EE700BF42004FEAE2014FEAD0
:1005700031014FEA02701FBF12F07F4393F07F4FAB
:1005800081F06051704732F07F4208BF704793F0AE
:100590007F4F04BF41F40021704730B54FF46074C1
:1005A00001F0004521F000411CE700BF50EA0102C4
:1005B00008BF704730B54FF000050AE050EA01026D
:1005C00008BF704730B511F0004502D5404261EBDD
:1005D00041014FF4806404F132045FEA915C3FF41E
:1005E000D8AE4FF003025FEADC0C18BF03325FEABB
:1005F000DC0C18BF033202EBDC02C2F1200300FA6C
:1006000003FC20FA02F001FA03FE40EA0E0021FA90
:1006100002F11444BDE600BF70B54FF0FF0C4CF47E
:10062000E06C1CEA11541DBF1CEA135594EA0C0F30
:1006300095EA0C0F00F0DEF82C4481EA030621EA6B
:100640004C5123EA4C5350EA013518BF52EA0335A6
:1006500041F4801143F4801338D0A0FB02CE4FF058
:100660000005E1FB02E506F00042E0FB03E54FF088
:100670000006E1FB03569CF0000F18BF4EF0010E80
:10068000A4F1FF04B6F5007F64F5407404D25FEA7C
:100690004E0E6D4146EB060642EAC62141EA55512F
:1006A0004FEAC52040EA5E504FEACE2EB4F1FD0C71
:1006B00088BFBCF5E06F1ED8BEF1004F08BF5FEAEF
:1006C000500E50F1000041EB045170BD06F00046A1
:1006D00046EA010140EA020081EA0301B4EB5C044E
:1006E000C2BFD4EB0C0541EA045170BD41F4801146
:1006F0004FF0000E013C00F3AB8014F1360FDEBF6B
:10070000002001F0004170BDC4F10004203C35DA46
:100710000C341BDC04F11404C4F1200500FA05F3C9
:1007200020FA04F001FA05F240EA020001F000426A
:1007300021F0004110EBD37021FA04F642EB0601E0
:100740005EEA430E08BF20EAD37070BDC4F10C040A
:10075000C4F1200500FA04F320FA05F001FA04F2CE
:1007600040EA020001F0004110EBD37041F10001BA
:100770005EEA430E08BF20EAD37070BDC4F12005C5
:1007800000FA05F24EEA020E20FA04F301FA05F22D
:1007900043EA020321FA04F001F0004121FA04F2D5
:1007A00020EA020000EBD3705EEA430E08BF20EAA5
:1007B000D37070BD94F0000F0FD101F000464000DF
:1007C00041EB010111F4801F08BF013CF7D041EA61
:1007D000060195F0000F18BF704703F00046520065
:1007E00043EB030313F4801F08BF013DF7D043EA36
:1007F0000603704794EA0C0F0CEA135518BF95EAEC
:100800000C0F0CD050EA410618BF52EA4306D1D172
:1008100081EA030101F000414FF0000070BD50EA91
:10082000410606BF1046194652EA430619D094EA1B
:100830000C0F02D150EA013613D195EA0C0F05D105
:1008400052EA03361CBF104619460AD181EA030159
:1008500001F0004141F0FE4141F470014FF0000011
:1008600070BD41F0FE4141F4780170BD70B54FF0AC
:10087000FF0C4CF4E06C1CEA11541DBF1CEA13552C
:1008800094EA0C0F95EA0C0F00F0A7F8A4EB05040E
:1008900081EA030E52EA03354FEA013100F0888005
:1008A0004FEA03334FF0805545EA131343EA1263CE
:1008B0004FEA022245EA111545EA10654FEA002683
:1008C0000EF000419D4208BF964244F1FD0404F53C
:1008D000407402D25B084FEA3202B61A65EB030598
:1008E0005B084FEA32024FF480104FF4002CB6EB55
:1008F000020E75EB030E22BFB61A754640EA0C00D5
:100900005B084FEA3202B6EB020E75EB030E22BF14
:10091000B61A754640EA5C005B084FEA3202B6EB55
:10092000020E75EB030E22BFB61A754640EA9C0014
:100930005B084FEA3202B6EB020E75EB030E22BFE4
:10094000B61A754640EADC0055EA060E18D04FEAA2
:10095000051545EA16754FEA06164FEAC30343EA42
:1009600052734FEAC2025FEA1C1CC0D111F4801F0F
:100970000BD141EA00014FF000004FF0004CB6E708
:1009800011F4801F04BF01430020B4F1FD0C88BFA7
:10099000BCF5E06F3FF6AFAEB5EB030C04BFB6EBB2
:1009A000020C5FEA500C50F1000041EB045170BDA5
:1009B0000EF0004E4EEA113114EB5C04C2BFD4EBD2
:1009C0000C0541EA045170BD41F480114FF0000E56
:1009D000013C90E645EA060E8DE60CEA135594EAD2
:1009E0000C0F08BF95EA0C0F3FF43BAF94EA0C0FD5
:1009F0000AD150EA01347FF434AF95EA0C0F7FF44A
:100A000025AF104619462CE795EA0C0F06D152EA9D
:100A100003353FF4FDAE1046194622E750EA410681
:100A200018BF52EA43067FF4C5AE50EA41047FF492
:100A30000DAF52EA43057FF4EBAE12E74FF0FF3CF7
:100A400006E000BF4FF0010C02E000BF4FF0010CC8
:100A50004DF804CD4FEA410C7FEA6C5C4FEA430C41
:100A600018BF7FEA6C5C1BD001B050EA410C0CBF90
:100A700052EA430C91EA030F02BF90EA020F0020F2
:100A8000704710F1000F91EA030F58BF994208BF59
:100A900090422CBFD8176FEAE37040F00100704716
:100AA0004FEA410C7FEA6C5C02D150EA013C07D16D
:100AB0004FEA430C7FEA6C5CD6D152EA033CD3D0B8
:100AC0005DF8040B704700BF8446104662468C46B2
:100AD0001946634600E000BF01B5FFF7B7FF0028E5
:100AE00048BF10F1000F01BD4DF808EDFFF7F4FF0E
:100AF0000CBF012000205DF808FB00BF4DF808ED99
:100B0000FFF7EAFF34BF012000205DF808FB00BFBB
:100B10004DF808EDFFF7E0FF94BF012000205DF8DD
:100B200008FB00BF4DF808EDFFF7CEFF94BF012092
:100B300000205DF808FB00BF4DF808EDFFF7C4FF8B
:100B400034BF012000205DF808FB00BF4FEA410CD4
:100B50007FEA6C5C02D150EA013C0AD14FEA430CB7
:100B60007FEA6C5C02D152EA033C02D14FF00000F4
:100B700070474FF0010070474FEA410212F5001232
:100B800015D211D56FF47873B3EB625212D94FEAD4
:100B9000C12343F0004343EA505311F0004F23FABE
:100BA00002F018BF404270474FF00000704750EA13
:100BB000013005D111F0004008BF6FF000407047D0
:100BC0004FF00000704700BF4A0011D212F500122A
:100BD00011D20DD56FF47873B3EB62520ED44FEA95
:100BE000C12343F0004343EA505323FA02F0704715
:100BF0004FF00000704750EA013002D14FF0FF3053
:100C000070474FF00000704753B94AB9002908BF38
:100C100000281CBF4FF0FF314FF0FF3000F072B9D9
:100C2000ADF1080C6DE904CE00F006F8DDF804E043
:100C3000DDE9022304B070472DE9F047089E044621
:100C40008846002B4BD18A42154667D9B2FA82F208
:100C50004AB1C2F1200701FA02F320FA07F79540E2
:100C600047EA030894404FEA154E230CB8FBFEF701
:100C70001FFA85FC0EFB178843EA084307FB0CF1BB
:100C8000994209D9EB1807F1FF3080F01B81994296
:100C900040F21881023F2B445B1AA4B2B3FBFEF072
:100CA0000EFB103344EA034400FB0CFCA44509D9B5
:100CB0002C1900F1FF3380F00781A44540F2048134
:100CC00002382C4440EA0740A4EB0C0400271EB174
:100CD000D4400023C6E900433946BDE8F0878B4283
:100CE00009D9002E00F0EB800027C6E90001384644
:100CF0003946BDE8F087B3FA83F7002F47D18B421E
:100D000002D3824200F2FA80841A61EB03030120CD
:100D10009846002EE0D0C6E90048DDE702B9FFDEC4
:100D2000B2FA82F2002A40F08F80491B4FEA154E3A
:100D30001FFA85F80127B1FBFEFC230C0EFB1C11EA
:100D400043EA014308FB0CF1994207D9EB180CF177
:100D5000FF3002D2994200F2CD808446591AA3B2E4
:100D6000B1FBFEF00EFB101443EA044408FB00F84C
:100D7000A04507D92C1900F1FF3302D2A04500F29B
:100D8000B6801846A4EB080440EA0C409FE7C7F180
:100D9000200CBB4022FA0CFE4EEA030E01FA07F4C7
:100DA00020FA0CF521FA0CF34FEA1E482543B3FB59
:100DB000F8F92C0C08FB19331FFA8EFA44EA0343A6
:100DC00009FB0AF49C4202FA07F200FA07F10BD978
:100DD0001EEB030309F1FF3080F087809C4240F254
:100DE0008480A9F1020973441B1BADB2B3FBF8F078
:100DF00008FB103345EA034400FB0AFAA24508D970
:100E00001EEB040400F1FF336BD2A24569D902380E
:100E1000744440EA0940A0FB0289A4EB0A044C4553
:100E2000C2464B4654D351D0002E69D0B1EB0A05CF
:100E300064EB030404FA0CFCFD40FC404CEA05059D
:100E4000C6E90054002747E7C2F1200320FA03F760
:100E5000954001FA02F021FA03F34FEA154E3843A8
:100E6000010CB3FBFEF71FFA85F80EFB173341EABE
:100E7000034107FB08F38B4204FA02F407D969180F
:100E800007F1FF3C2FD28B422DD9023F2944CB1AC8
:100E900081B2B3FBFEF00EFB103341EA034100FBCD
:100EA00008F38B4207D9691800F1FF3C17D28B4237
:100EB00015D902382944C91A40EA07473BE73746A3
:100EC000304609E70746E7E61846FBE64145ABD260
:100ED000B8EB020A69EB0E0201381346A4E760463C
:100EE000E9E7184695E76746D1E781467CE702388F
:100EF0002C4447E7ACF1020C2B442FE7384608E7B7
:100F00003746E9E6704700BFF8B5314800F04EF9C2
:100F1000002854D100222F492F4C104634F812508B
:100F200031F8023F5B1B002BB8BF5B42272BD8BFB9
:100F3000013034F812300B8002F10102D8BF80B2C8
:100F4000202AEBD11F282FD90CF098FB234C244BDF
:100F5000A18E1A684EF66023821A03FB01F39A42AF
:100F600031D2238F9BB11F4C1F4D204F04F1F0064F
:100F7000204601F06FFC10B9B5F90030DBB920460E
:100F800001F068FC3C34A64225F8020BF0D1184869
:100F900000F0F4F918B9174800F0F0F950B113480F
:100FA000BDE8F84001F0FABA0CF068FB0C4B0B4CB2
:100FB0001860D6E7F8BD384601F0ECFADFE70B48D9
:100FC00001F0E0FAA6E7094801F0E0FAC9E700BF3E
:100FD00030090020C2070020D80900201C5601203B
:100FE0000408002094250020080800204C2400203C
:100FF00060090020AC5401202DE9F84F1C4F1D4D15
:10100000DFF880B03C4607F5A87A4FF064094FF44A
:101010007A68002140F6FF7240F2FF7340F6020644
:10102000A4F81090A4F81280C4F804B0A682A1839A
:10103000E28323842846303400F0BCFC544505F597
:101040009475E6D10C4B0D485C8E0D49A7F83461C0
:101050004FF052724FF4D273A7F84641C7F82401FB
:10106000C7F83011C7F83C21A7F84031BDE8F88F28
:1010700010080020B00A00201C5601206F12833A8D
:101080006400A00F0AD7A33CF8B53C4C3C4E2DEDB4
:10109000028B04F5A875B7EE008A2FE0628AA18A58
:1010A0009A4228BF1A4691424ED9A38B278C121A16
:1010B000FF1A081A02FB07F292FBF0F213449BB2EC
:1010C000E28A23801AB1E28BD31A9BB22380A28CCE
:1010D0009A4250D8E28C9A4234BF00220122618C9D
:1010E000A28599423DD8228D9A4234BF0023012324
:1010F00063853034AC4206F5947639D0304600F042
:1011000073FCBCEEC00A94ED017A94ED026A208A69
:1011100010EE103A99B278EE477A06EE901A67EE22
:10112000867AF8EEE66AE160E7EE267ABCEEE77AC8
:10113000C4ED027A17EE103A9BB283422383ADD2FC
:10114000A18A02469142B0D8238CE78B608AFF1AAD
:10115000521A02FB07F2401A92FBF0F213449BB2C0
:10116000AEE7002363853034AC4206F59476C5D1F2
:10117000BDEC028BF8BD0022B1E700BF10080020D3
:10118000B00A002008827047488270478882704702
:10119000008A7047408A7047808A7047C8837047CA
:1011A000C08B7047C8847047C08C7047808D704773
:1011B00000887047008B704738B5314C314DE38A59
:1011C00035F813309BB2A382002B55D00CF056FAA1
:1011D000D4E901132C4A5B1A1844A2FB00232B4AC2
:1011E0002B49A0609B09A2FB03C25209A1FB00107E
:1011F000C2EB0212800BA3EB8203C4E903300CF0B4
:101200003DFA6060238B33B1E36AA2689A422CBF37
:101210000123002363831F4CE38A35F813309BB20C
:10122000A3822BB30CF02AFAD4E90153164A1749CA
:101230005B1B1844A2FB00239B09A1FB0312144D66
:10124000A0605209C2EB0212A5FB0010800BA3EBB9
:101250008203C4E903300CF011FA6060238B33B1D0
:10126000E36AA2689A422CBF01230023638338BD3E
:101270000CF004FA6060F1E70CF000FA6060C1E77E
:1012800060090020180A0020D34D621089888888E0
:1012900073B2E745AC54012070B50CF0EFF9104E75
:1012A000104C30600CF0EAF90025C6E90105C6E9EA
:1012B00003550CF0E3F920600CF0E0F910226060B7
:1012C0000949A56006F11C00C4E9035517F08AFC22
:1012D00004F11C0010220549BDE8704017F082BCE3
:1012E00060090020AC540120F0FE0108F8FE01085E
:1012F00010B504460CF0C2F920600CF0BFF90023D1
:10130000C4E90103C4E9033310BD00BF008A70477C
:10131000808970471C3070470B4628B10146102267
:1013200003F11C0017F05EBC704700BFC08A704715
:10133000C8827047008B7047003018BF01200883B7
:10134000704700BF4EF660224B8E088602FB00F00D
:101350004FF47A7202FB0300C8627047008E704738
:101360004FF47A720B8E488602FB00F04EF6602234
:1013700002FB0300C8627047408E7047408B704785
:1013800038B53E483E4CFFF713FF03463D482380E7
:10139000FFF70EFF03463C486380FFF709FF034653
:1013A0003A48A380FFF704FF03463948E380FFF77C
:1013B000FFFE034637482381FFF7FAFE0025034668
:1013C00035486381A581E58100F0B8FA03463348CA
:1013D000238200F0B3FA03463148638200F0AEFA8C
:1013E00003463048A38200F0A9FA03462E48E38260
:1013F00000F0A4FA03462D48238300F09FFA2C49FD
:101400006083A583E58325846584A584E58425859B
:101410006585A585E58525866586A586E586258776
:101420006587A587E5870A8823889B1A002BB8BFA4
:101430005B42282BD8BF012202DD0EE0202A18D003
:1014400034F8123031F8020F1B1A002BB8BF5B4280
:10145000282B95B202F10102F0DD164B1D80164AD1
:10146000002334F8131022F8021F0133202BF8D187
:1014700038BD104B4BF6AF621A80F0E71008002021
:10148000D80900204008002070080020A008002093
:10149000D008002000090020E05401201055012050
:1014A0004055012070550120A0550120D055012044
:1014B00098090020940900209609002070B5414D3C
:1014C000414C284600F038FAA0F10203B3FA83F346
:1014D0005B092846238000F02FFAB0FA80F35B09FD
:1014E0002846638000F028FAA0F1010305F13006D8
:1014F000B3FA83F35B093046A38000F01DFAA0F134
:101500000203B3FA83F35B093046E38000F014FA78
:10151000B0FA80F35B093046238100F00DFAA0F1A8
:10152000010305F16006B3FA83F35B09304663817A
:1015300000F002FAA0F10203B3FA83F35B0930462C
:10154000A38100F0F9F9B0FA80F35B093046E3813A
:1015500000F0F2F9A0F10103B3FA83F35B0930461E
:10156000238200F0E9F9A0F102039035B3FA83F386
:101570005B092846638200F0DFF9B0FA80F35B096B
:101580002846A38200F0D8F9A0F10100B0FA80F05B
:10159000002340090122E08223836383A383E38342
:1015A00023846384A384E38423856385A385E385FF
:1015B00023866386A386E38623876387A387E287E0
:1015C00070BD00BFE0540120180A0020014B1888AC
:1015D000704700BF9409002038B500F0B1F900F061
:1015E00045FE00F099FEFFF707FD00F0F3F801F06B
:1015F000B3F900F0D7FDFFF74FFE00F027FD03F031
:1016000029FF01F08FF81748174C10F04FFD01200B
:101610000CF03AF8154810F049FD154810F046FD59
:10162000144810F043FD00F095FF00F07BFF4FF4ED
:101630007A700CF029F82046FFF7BCFD04F1300564
:101640002146FFF7A3FD2846FFF7B4FD9034294655
:10165000FFF79CFD2046FFF7ADFD2146BDE8384071
:10166000FFF794BD6C77012010080020AC760120B4
:101670006C7601202C77012038B50BF0FFFF054672
:1016800003F026FF00F006F9FFF718FFFFF73CFC18
:101690001448154C00F042FEFFF78EFD0BF0EEFFF4
:1016A000124A2368401B1060C3B1236940F2E6323E
:1016B000934202D80133236138BD0BF0DFFF23686A
:1016C0000B4AC01AB2FBF0F0FEF72CFFC4E902018E
:1016D0000BF0D4FF00232060236138BD0BF0CEFF58
:1016E000206038BD4C240020700A0020880A0020A9
:1016F00040420F00036810B50446C3B1036940F2CD
:10170000E632934202D80133036110BD0BF0B6FFFD
:101710002368094AC01AB2FBF0F0FEF703FFC4E9E0
:1017200002010BF0ABFF00232060236110BD0BF022
:10173000A5FF206010BD00BF40420F0090ED020BDE
:10174000704700BF38B50BF099FF1E4C1E4D20604E
:10175000FFF79AFCFFF714FE01F094F801F018F877
:101760000BF08CFF23682A88C01A272A20601DD816
:10177000164C236801322A8003B3236940F2E63213
:10178000934202D80133236138BD0BF077FF236801
:101790000F4AC01AB2FBF0F0FEF7C4FEC4E9020122
:1017A0000BF06CFF00232060236138BD074C0AF06A
:1017B000EBFD00232B802368002BDED10BF05EFFB6
:1017C000206038BDA80A0020AC0A0020900A002042
:1017D00040420F0070B4254B254A264D264C274821
:1017E0002749284EC3F8D820274A1C619861274C06
:1017F000996740F6FF7040F2FF71C3F8A860244E6D
:101800005D61C3E91055C3F8A450C3F82240C3F882
:101810005240C3F88240C3F8B240C3F8E2409E642D
:1018200098629865C3F88800C3F8B800C3F8E80068
:101830009985A3F85C10A3F88C10A3F8BC10A3F84A
:10184000EC10C3E91C22C3F8A020C3E93422C3F87A
:101850000421C3F80021C3F80861C3F81241C3F89A
:101860001801A3F81C1170BC704700BFE0540120A0
:101870000200010000100240000402400080000449
:101880008000400080001000000C02400200320086
:10189000002000402DE9F041264C002504F590760B
:1018A00001274FF0020820E00BF0E8FE2368A28C2D
:1018B000C01A904200D3A783618B20690CF0C0FF4F
:1018C00018BB0BF0DBFE6368A28CC01A904200D3F9
:1018D0002784238CE58403B3A38BA4F826802BBB39
:1018E000638DE3853034B4421ED0218B60690CF0E7
:1018F000A7FF0028D8D0A5830BF0C0FE618B206025
:1019000020690CF09DFF0028DBD025840BF0B6FE8B
:10191000238C6060E584002BDED1A38B33B9A38DCB
:10192000E3853034B442E0D1BDE8F081238DE78413
:10193000E385D7E7E0540120C08C7047C08D704725
:1019400030B4074B074A084D1A6050210024D16279
:1019500006485D605C813C2130BC10F0AFBF00BF29
:10196000005601200008004004001400AC7501205E
:10197000036880885B6A9BB2B3FBF0F0704700BFDE
:1019800010B48B884C890A6800FB034050625DF8F4
:10199000044B704710B4CC888B880A6884421CBF03
:1019A000C880536203FB00F3D3625DF8044B7047B9
:1019B0008880704708B54FF49272002116F0C1FB81
:1019C0000022C0F8242108BDD0F824315A1C482A2E
:1019D00000EB8303C0F8242183ED000A84BF0023B9
:1019E000C0F82431704700BF164BD0F824219FED7A
:1019F000160A03F592714AB9F3EC017A90ED487A30
:101A00009942A7EE270A18BF482219D010B409E05E
:101A100042B9F3EC017A90ED487A9942A7EE270A91
:101A20000BD04822013AF3EC017A00EB820494EDEA
:101A3000007A8B42A7EE270AEAD15DF8044B704783
:101A4000704700BF303D020800000000BFF34F8F19
:101A50000549064BCA6802F4E0621343CB60BFF34A
:101A60004F8F00BFFDE700BF00ED00E00400FA0566
:101A7000F8B5354C074600F1100504F570762046A0
:101A800000F0DCFE6884204600F0DAFEA5F8420093
:101A9000204600F0DFFE25F8020F204600F0D2FEBF
:101AA000A5F86000204600F0EBFEA5F88000204677
:101AB00000F0D6FEA5F8A000204600F0D5FEA5F85F
:101AC000C000204600F0D2FE3C34B442A5F8E0004D
:101AD000D5D11E48FFF71EFC1022014607F589707C
:101AE00017F080F81A48FFF715FC1022014607F599
:101AF000917017F077F81548FFF71CFCA7F836012E
:101B00001348FFF717FCA7F838011048FFF734FC1B
:101B1000A7F83A010E48FFF72FFCA7F83C010B4845
:101B2000FFF71CFCA7F83E010948FFF717FCA7F8D0
:101B300040010648FFF7FAFBA7F832010448FFF717
:101B4000F5FBA7F83401F8BD9425002060090020BA
:101B5000AC5401202DE9F04FDFF8E8A3DFF8E8935B
:101B6000DFF8E88381B0544600264FF0010C0025D1
:101B70006421A4F894C002230327042205204FF017
:101B8000060B4FF0070E4FF0080C26826186A4F872
:101B90005210A186A4F85410E186A4F856102187AB
:101BA000A4F85810A4F89630A4F8987065820A2713
:101BB000A4F87250A4F89250A4F8B250A4F8D250ED
:101BC000A4F8F250A582A4F87450A4F8B450A4F874
:101BD000D450A4F8F450E582A4F87650A4F8B65096
:101BE000A4F8D650A4F8F6502583A4F87850A4F8A9
:101BF000B850A4F8D8500923A4F8F8506187A4F885
:101C00005A10A187A4F85C10E187A4F85E10A4F82C
:101C10004010A4F86010A4F89A20A4F89C00A4F83E
:101C20009EB0A4F8A0E065834FF00E0EA4F87A50A1
:101C3000A4F8BA50A4F8DA50A4F8FA50A583A4F88E
:101C40007C50A4F8BC50A4F8DC50A4F8FC50E58308
:101C5000A4F87E50A4F8BE50A4F8DE50A4F8FE50BC
:101C60002584A4F88050A4F8C050A4F8E050A4F84B
:101C700000510B22A4F842100C20A4F8A2C04FF08F
:101C80000D0B4FF00F0CA4F86210A4F84410A4F848
:101C90006410A4F84610A4F86610A4F84810A4F83C
:101CA0006810A4F84A10A4F8A430A4F8A820334679
:101CB0006584A4F88250A4F8C250A4F8E250A4F8B5
:101CC0000251A584A4F88450A4F8C450A4F8E450A8
:101CD000A4F80451E584A4F88650A4F8C650A4F8EA
:101CE000E650A4F806512585A4F88850A4F8C850F9
:101CF000A4F8E850A4F80851A4F8A6704A46A4F83D
:101D00006A10A4F8AEE0A4F8B0C0A4F84C10A4F88F
:101D10006C10A4F84E10A4F86E10A4F85010A4F89B
:101D20007010A4F8AA006585A4F88A50A4F8CA50D7
:101D3000A4F8EA50A4F80A51A585A4F88C50A4F898
:101D4000CC50A4F8EC50A4F80C51E585A4F88E50C2
:101D5000A4F8CE50A4F8EE50A4F80E511021258618
:101D6000A4F89050A4F8D050A4F8F050A4F8105162
:101D70002046A4F8ACB016F001FF1022414604F54D
:101D8000897016F02FFF013604F591701022634917
:101D900016F028FF1F235E45A4F83651A4F83851E9
:101DA000A4F83A51A4F83C51A4F83E71A4F840714B
:101DB000A4F83231A4F8343104F5A1747FF4D5AE1F
:101DC000574800F10E030343A0F10E04234313F020
:101DD000070340F0878040F2FF7140F6FF722381D5
:101DE0006381A38120F80E3CC280828042806380A0
:101DF000A380E380A183E18321846184A184E184C1
:101E000021850280E28222836283464BC4F82E3011
:101E10000123454E454A464F63854FF00113C4F8F0
:101E20003220C4F83630434AC4F83A20002306F181
:101E30000E093546B846C4F83E3035F8020F414623
:101E4000FFF7A0F94146E889FFF79EF94146A88BC4
:101E5000FFF79CF94D4508F13008EED1E08D03F015
:101E600039FD3549E08E03F0FFFD3449608EFFF700
:101E700099F93846FFF78CF926F8020F3846FFF734
:101E800089F9F0813846FFF787F9AE4207F130074C
:101E9000B083EED103F024FDE0852848FFF784F9F4
:101EA0006086254803F0DCFD638DE0864FF4A17069
:101EB00000FB03A0FFF7DCFD002013F07FFA0022F7
:101EC000114642231E4813F073FC012013F076FAEA
:101ED0001C4841F25A030022012101B0BDE8F04F35
:101EE00013F066BC40F2FF7240F6FF7320F80E5C00
:101EF0006580A580E58025816581A581A283E28337
:101F000022846284A284E2842285E3812382638224
:101F1000A382E3822383638377E700BFF8FE01088F
:101F20002A560120FF0FAFBE1A5601204A010F00AA
:101F3000100800200500070040A7002030090020FD
:101F40001C560120F013002000030208F0FE0108D7
:101F5000F8B5394C074600F11005002635F9020F97
:101F6000214600F07BFC2146288C00F03DFC2146F8
:101F7000B5F8400000F04CFC2146B5F8600000F0D8
:101F800063FC2146B5F8800000F076FC2146B5F8E8
:101F9000A00000F067FC2146B5F8C00000F06AFC24
:101FA0002146B5F8E00000F063FCB0B2013600F065
:101FB00017FF102E04F13C04D0D107F589701F499A
:101FC000FFF7AAF907F591701D49FFF7A5F9B7F8D2
:101FD00036011A49FFF7B0F9B7F838011849FFF789
:101FE000ABF9B7F83A011549FFF7BAF9B7F83C0170
:101FF0001349FFF7B5F9B7F83E011049FFF7A2F909
:10200000B7F840010E49FFF79DF9B7F832010B49C7
:10201000FFF78EF9B7F834010949FFF789F9094844
:10202000FFF7BEF8084B0749B3F84030184480B2B8
:10203000BDE8F840FFF7B2B8942500206009002001
:10204000AC540120300900201C560120F8B52A4E5E
:1020500042223046002113F0E1FB41F25A024FF4D4
:102060008051264813F0DAFB328E4BF6AF639A426A
:102070002BD0FFF76FFD224DB41E06F10C0734F88C
:10208000020F2946FFF77EF82946E089FFF77CF822
:102090002946A08BFFF77AF8BC4205F13005EED156
:1020A000F08D03F017FCF08E164903F0DDFC708E06
:1020B0001549FFF777F8728D104B4FF4A17000FBB4
:1020C0000230BDE8F840FFF743BF0D4DB41E06F1E6
:1020D0000C0734F8020F2946FFF754F82946E08927
:1020E000FFF752F82946A08BFFF750F8BC4205F1E4
:1020F0003005EED1D4E700BF1C560120F0130020BC
:102100001008002040A700203009002070B51F4CA7
:102110001F4D04F10E062846FFF73AF824F8020F87
:102120002846FFF737F8E0812846FFF735F8B44234
:1021300005F13005A083EED103F0D2FB154C164D0E
:10214000E0851648FFF730F86086154803F088FCF4
:10215000638DE0864FF4A17000FB0350FFF788FC0D
:10216000002013F02BF9002211462046422313F0E1
:102170001FFB012013F022F9284641F25A030022E6
:102180000121BDE8704013F013BB00BF1A560120B7
:10219000100800201C560120F013002030090020F8
:1021A00040A7002012F09EBF014B588D704700BF22
:1021B0001C56012000B589B008A8094B40F8203D05
:1021C000084A0023012102930193CDE90333CDE9AD
:1021D000053307930EF0E8F972B6FFF737FC00BF3E
:1021E00000280040EFBEADDE70B588B008AD002419
:1021F000154B0794CDE90144CDE90344CDE90544ED
:1022000045F8203D012128460EF0E0F92246064619
:10221000012128460EF0C8F90C4B9E4201D008B0AF
:1022200070BD0B4B00930DF083FD0A4B1C605C608E
:102230009C6062B6009B009A126882F308885B6813
:10224000984708B070BD00BF00280040EFBEADDE6B
:102250000000FF1F10E000E008B5002013F0AEF80A
:10226000012013F0ABF8FFF7F1FB00BF044B054A68
:1022700005491A604FF4FA6259601A81704700BF2D
:10228000C82400200004024000021E0038B58188E6
:10229000044600680CF0D4FA50B1638A012B0CD0CC
:1022A0000025002363820BF0E9F9A061284638BDC0
:1022B000012305466382284638BD0BF0DFF9A36988
:1022C000E288C01A9042EBD30BF0D8F9A3692589B4
:1022D000C01AA8422CBF00250125E2E738B5818845
:1022E000054600680CF0ACFA70B904460BF0C6F96C
:1022F000AB692A89C01A904204D3AB8A012B01D062
:102300000124AC82204638BD0024AC820BF0B6F923
:10231000A861204638BD00BF704700BF838E10B54E
:102320000446032B00F28B80DFE803F0021A042539
:10233000C38C73B1764B77487822DA620FF0B6FE21
:10234000002800F0D7800BF099F9A38E6064013368
:10235000A386E38E032B6ED8DFE803F0193F1B61E1
:102360000BF08CF9636CC01AB0F5487FF1D9A38EDD
:102370000133A386EDE70BF081F9636C42F2107232
:10238000C01A9042E5D9A38E0133A386E1E7238DDD
:10239000A3B15F4B5F484FF41672DA620FF032FE62
:1023A0005C480FF083FE012204215B480CF05AFACE
:1023B0000BF064F9E38EA0640133E386238ECBB97E
:1023C000638E5BB3B4F8403000222286032B00F208
:1023D0009A80DFE803F06E6646380BF04FF9A36C85
:1023E000C01AB0F5487FE9D9E38E0133E386238E26
:1023F000002BE5D0464B47484FF41672DA620FF0D7
:1024000001FE44480FF052FE0122042142480CF024
:1024100029FA00232386638E002BD3D110BD0BF045
:102420002DF9A36C42F21072C01A9042C6D9E38E05
:102430000133E386DBE70023E3862385BEE7002341
:102440008386C38485E70BF019F9E36D42F21072BD
:10245000C01A9042E2D9B4F840300133A4F84030B9
:1024600010BD2B4B2B487822DA620FF01FFE38B9D3
:1024700000F180400122042100F504300CF0F2F953
:10248000264B27484FF44872DA620FF00FFE40B334
:102490000BF0F4F8B4F84030E0650133A4F84030B4
:1024A00010BD0BF0EBF8E36DC01AB0F5487FD2D841
:1024B00010BD174B17487822DA620FF0F7FD38B9D4
:1024C00000F180400122042100F504300CF0CAF92B
:1024D000124B13484FF4FA62DA620FF0E7FD00285E
:1024E000D6D100F180400122082100F504300CF023
:1024F000B9F9CDE700F180400122042100F5043054
:102500000CF0B0F91FE70023A4F84030638610BD3B
:10251000001C00406C7601200010024000200040AA
:102520002C77012008B5094B09487822DA620FF0B0
:10253000BDFD00B108BD00F180400122042100F57D
:102540000430BDE808400CF08DB900BF001C00400D
:102550006C76012008B5094B09484FF44872DA62DD
:102560000FF0A4FD00B108BD00F180400122082158
:1025700000F50430BDE808400CF074B900200040BC
:102580002C7701200123C384704700BF01230385FA
:10259000704700BF01230386704700BF01234386B5
:1025A000704700BF2DE9F84F438D8188102B9ABFEB
:1025B00001339BB200230446438500680CF06CF99C
:1025C000638D102B40F29080A31D5A08524212F0E6
:1025D000030200F09080012AB4F8069000F09A807F
:1025E0002389032A99441FFA89F940F08F8063896F
:1025F00099441FFA89F94FF00D081546D31C04EBD6
:102600004306C2F1100254F81310706892B20836F3
:102610000327D6E9003B0BEB000EC0F30F40D6F8C2
:1026200008A000EB1B4BF06801EB030CC1F30F415A
:1026300001EB1341D4440023864401EB1A411FFAF5
:102640008CFC9A461FFA8EFE0BEB104089B26CF39D
:102650000F036EF30F0A80B2042F61F31F4360F380
:102660001F4A5BD1D6E904A60023D44401EB1A41EA
:10267000B6449A4600EB16406EF30F0A6CF30F0354
:1026800060F31F4A61F31F4303EB13434B44BF0046
:10269000534403EB1A43A8EB070897429BB21FFA77
:1026A00088F83D4418D004EB45016A1CC988B8F18C
:1026B000010F0B449BB292B20ED004EB42020235E2
:1026C000D288B8F1020F13449BB2ADB204D004EB30
:1026D0004505EA8813449BB2228E1149D31A9BB256
:1026E0006386CB62BDE8F88F04EB43040C4BE288B1
:1026F000DA62BDE8F88F914610225868D4F80610C7
:102700004D46904604F10E06042782E74FF00E086E
:10271000022573E74FF00F0815466FE70327B3E76D
:102720000044014038B5134C134B636345F2E47326
:10273000124D23860823618EA387114A114B6260D4
:102740004FF49670A0632185284601220221C4E936
:102750000233C4E90433C4E90633C4E9083325600D
:102760000CF080F8084B228FDA620848BDE8384048
:102770000FF09CBC54250020F401A4060010024078
:1027800002002C012C012C0100440140EC750120B9
:102790002DE9F041124D134F05F5F0783E4605E066
:1027A0003C354545338106F1040616D0284600F035
:1027B00043F80446284600F04DF804F52F742044F1
:1027C000FB8E80B29842EBD8BB8E9842E8D33C3562
:1027D0004545308106F10406E8D1BDE8F08100BF2F
:1027E000942500205425002010B40B8B8C8A074AB6
:1027F00088841C1B00FB04F082FB0042C017C0EB66
:102800006210181AC8835DF8044B70471F85EB519E
:1028100010B40B8BCC8A074AC884E41A00FB04F07E
:1028200082FB0042C017C0EB6210184408845DF8B8
:10283000044B70471F85EB5100887047808C7047B0
:10284000C08C7047408D7047003018BF012048850C
:10285000704700BFB0F92800704700BF0885704777
:10286000808D704788857047C08D7047008E704797
:1028700008867047C8857047202898BF088770472A
:10288000008F70473249F0B4324D01F570742EE07C
:102890008B894E6090B2984208823CD3088BCF8AD5
:1028A000D21A3F1AF61A02FB07F393FBF6F303441E
:1028B0009BB28A8D4B8322B14A6B12B132F813302E
:1028C0004B83984235D80E8CCA8A1B1A361A03FBE2
:1028D00006F3121A93FBF2F303449BB24A8D0B806A
:1028E00012B1C88AC31A0B803C31A1422DD00B8F84
:1028F0004E8935F813309BB2B3423246C8D80A89A4
:10290000934224BF1A464B608B8938BF4A6090B20D
:1029100098420882C2D20E898F8A088B921BA0EB44
:10292000070C9E1B02FB0CF292FBF6F2BB189BB24B
:10293000BFE78F8ACE8BDB1B821B02FB03F3C01B1E
:1029400093FBF0F333449BB2C8E7F0BC704700BF81
:1029500094250020D8090020B24AB34BDFF8D4C236
:102960002DE9F041012003F2D2755363022103F6F1
:10297000A473AE4C15674FF07A764FF4FA750CF2EB
:10298000D2774FF0030EC2F8AC30A2F874000023E7
:1029900040F2FF70A2F8B010C2F8E8C04FF0641126
:1029A0004FF0040CA2F8ECE056611665C2F88C609A
:1029B000C2F8C8601583A2F85450A2F89050A2F84B
:1029C000CC5094605464C2F88040C2F8BC409081FE
:1029D000A2F84800A2F88400A2F8C0005162116673
:1029E000C2F89C10C2F8D810D36213879366C2F85D
:1029F000A430C2F8E030A2F828C1C2F824714FF028
:102A0000050C07F2D277A2F864C1C2F860714FF0EA
:102A1000060C07F2D277A2F8A0C1C2F89C714FF061
:102A2000070C07F2D277C2F80461A2F80851C2F885
:102A3000F840A2F8FC00C2F81411C2F81C31C2F828
:102A40004061A2F84451C2F83441A2F83801C2F8FA
:102A50005011C2F85831C2F87C61A2F88051C2F816
:102A60007041A2F87401C2F88C11C2F89431C2F816
:102A7000B861A2F8BC51C2F8AC41A2F8B001C2F8EA
:102A8000C811C2F8D031C2F8F461A2F8DCC1C2F8B2
:102A9000D8714FF0080C07F2D277A2F818C2C2F82A
:102AA00014724FF0090C07F2D277A2F854C2C2F8A0
:102AB00050724FF00A0C07F2D277A2F890C2C2F817
:102AC0008C724FF00B0C07F2D277A2F8CCC207F24F
:102AD000D27CA2F8F851C2F8E841A2F8EC01C2F8A1
:102AE0000412C2F80C32C2F83062A2F83452C2F8B2
:102AF0002442A2F82802C2F84012C2F84832C2F8B2
:102B00006C62A2F87052C2F86042A2F86402C2F885
:102B10007C12C2F88432C2F8A862A2F8AC52C2F8A1
:102B20009C42A2F8A002C2F8B812C2F8C032C2F8A1
:102B3000E462A2F8E852C2F8C872C2F82063C2F890
:102B40005C63C2F898630CF2D2764FF00C0EC2F8B8
:102B5000D842A2F8DC02C2F8F412A2F82453C2F858
:102B60001443A2F81803C2F83013A2F86053C2F855
:102B70005043A2F85403C2F86C130D27A2F89C53DB
:102B8000C2F88C430CF6A4754FF00E08A2F890031F
:102B9000C2F8A8130F2006F6A471254CC2F8FC3227
:102BA000C2F83833C2F87433C2F8B033C2F87C5379
:102BB000A2F808E31346C2F804C3A2F84473C2F8AB
:102BC0004063A2F88083A2F8BC03C2F8B81302F5F0
:102BD00070755A891989188B9F8ADE8AB3F80CC0E0
:102BE000C3F804C0914288BF1A81D98C9A8C361AD6
:102BF000C71B01FB06F102FB07F284FB026784FBA3
:102C000001C6D217C917C2EB6712C1EB6611821A4F
:102C10000144DA8319843C339D42DAD1BDE8F041A6
:102C200000F0C4B994250020542900200000FF0FB3
:102C30001F85EB51CA400020664A00EB40032DE996
:102C4000F04F9B00D41832F80380A688B4F808A08F
:102C500091B0A8EB46030546304603EB0A09FDF7A1
:102C600061FC02460B46FDF7D7FCCDE90201A8EB5B
:102C70000600FDF767FC064608FB0AF00F46FDF765
:102C800061FC02460B4630463946FDF70DFBCDE9A7
:102C900004014846FDF756FC02460B4600204E490B
:102CA000FDF7E4FDCDE908016088FDF74BFCCDE9B7
:102CB0000A01E088FDF746FC0B460246FDF7F6FAEE
:102CC000CDE906016089FDF73DFC40F2D273CDE904
:102CD0000C01B9F1000F67D0404A03FB05F5E91874
:102CE00002F2E633A5F1020B2B44934401EB0208F8
:102CF0000F934FF0000A5046FDF724FCDDE9022354
:102D0000FDF7D4FA41EC100B17F078FADDE9040175
:102D100053EC102BFDF7CAFADDE90823FDF77CFC24
:102D200004460D4602460B4600202B49FDF7BCFA2F
:102D300006460F4602460B46DDE90A01FDF76CFC2C
:102D40002246CDE900012B46DDE90601FDF764FCD2
:102D500002460B46DDE90001FDF7A8FA32463B4684
:102D6000FDF75AFC224606460F462B4620462946CA
:102D7000FDF752FCDDE90C23FDF74EFC0B46024645
:102D800039463046FDF792FAFDF71EFF80B22BF868
:102D9000020F0F9BC0F57A709B45CA4428F8020DBC
:102DA000A9D111B0BDE8F08F03FB05F50B49A81EB2
:102DB0001D4408444B4629449AB20133C2F57A7443
:102DC000B3F5FA7F20F8022F21F8024DF4D111B0AB
:102DD000BDE8F08F74A600200000F03F54290020C9
:102DE0002DE9F04F6E4CC0EB001304EB830483B06D
:102DF000A38D012B054600F0A48029D3022B40F0BF
:102E00009D802046FFF730FD00F164034FF4FA7611
:102E1000DFF89481634F9BB205EB450206FB03F399
:102E200007EB8207A8FB03139B09BB802046FFF733
:102E30001DFD00F164039BB206FB03F3A8FB032313
:102E40009B092846FB8003B0BDE8F04FFFF7F4BEB6
:102E5000606B43085B4213F00303834600F08F80EE
:102E60000022012B2BF8022B00F08E800122032B75
:102E7000428000F1040B40F08C800222828040F2FC
:102E8000E63200F1060B019299460024C3F57A7AE6
:102E9000254609F102020AF1010A62F30F0569F3FE
:102EA0000F0409F1030109F101021FFA8AFA61F323
:102EB0001F4562F31F4400EB43004FEA9A084FF0AE
:102EC000000E002105F1040CC5F30F43271DC4F3C8
:102ED0000F420E461FFA8CFC04339BB2BFB2043281
:102EE0000EF1010E6CF30F0663F31F4692B267F307
:102EF0000F011FFA8EF362F31F419845046045608D
:102F00000C4600F108003546DBD82AF0030201998F
:102F100092B209EB0203891A92459BB289B20BEB7C
:102F200042040BD0581C01292BF8123082B205D074
:102F3000023302299BB2628000D0A38003B0BDE8B7
:102F4000F08F2046FFF790FC164A174C00F1640101
:102F500005EB450002EB800289B24FF4FA7303FBE4
:102F600001F3A4FB03131189C3F38F13C91A284675
:102F70009380D18003B0BDE8F04FFFF75DBE40F213
:102F8000E9320192994680E74FF47A7201929946AC
:102F90007BE740F2E73201924FF0020975E700BF8C
:102FA0009425002074A600201F85EB512DE9F04FD9
:102FB00087B0594B0293DFF864B10023019300936B
:102FC0004FEA5B004042BDF80030039310F003006D
:102FD000DA4600F095804FF0000301282AF8023B02
:102FE00000F0898001230328ABF802300BF1040ABA
:102FF00040F08B800223ABF8043040F2E6330BF153
:10300000060A059381460024254609F10203C0F50E
:103010007A7263F30F05013209F1010369F30F04BA
:1030200063F31F4493B2019A049310443B4A09F19D
:10303000030161F31F4502EB40004FEA93084FF094
:10304000000E00222E1DC5F30F43211DC4F30F47B0
:103050009446B6B204339BB289B204370EF1010E26
:1030600066F30F0C63F31F4CBFB261F30F021FFA3C
:103070008EF367F31F42434504604560144600F138
:1030800008006546DDD3049C059924F0030292B242
:1030900009EB0203891A94429BB289B20AEB4200FF
:1030A0000BD05C1C01292AF81230A2B205D00233E1
:1030B0009BB20229428018BF8380029A009D019929
:1030C000039800244FF0FA131460154C94600135F6
:1030D00001F2E9311446536000950191FFF780FE3B
:1030E00004F10C03102D0BF2D27B02937FF468AF36
:1030F00007B0BDE8F08F4FF47A730593814682E7FD
:1031000040F2E933059381467DE740F2E7330593CA
:103110004FF0020977E700BF74A600205429002071
:10312000F401F40100B583B0009313460A4601464A
:1031300004480DF05DFA003018BF012003B05DF8BF
:1031400004FB00BF7874012000B583B000931346E0
:103150000A46014604480DF06FFB003018BF0120FD
:1031600003B05DF804FB00BF7874012008B5034884
:103170000EF048F8043818BF012008BD787401200B
:10318000014601480EF02AB878740120704700BF4C
:1031900008B5FFF7FBFF08BD704700BF08B5FFF794
:1031A000FBFF08BD704700BF08B5FFF7FBFF08BD78
:1031B0000A4BDB8F022B08D010B5094909480A4C8D
:1031C00014F056FF207008B110BD70470122044969
:1031D000064814F005FF207010BD00BF1C560120EA
:1031E00034A700200C0302086056012094580120E7
:1031F00010B5084C012323702370FFF7B7FF18B9EF
:10320000237803F0FE0323702378DBB22370207849
:1032100010BD00BF0000002010B5064C0123237034
:10322000FFF7A4FF18B9237803F0FE03237020787A
:1032300010BD00BF0000002008B5084611461A4620
:103240004FF0FF33FFF76EFF20B9FFF78FFF002825
:10325000FBD108BD012008BD164B1B78DB0708D445
:1032600010B5144688B0032921D8DFE801F004071F
:103270000F1703207047002008B010BD6846FFF705
:103280007FFF069B2360002008B010BD6846FFF753
:1032900077FF079B2380002008B010BD6846FFF72A
:1032A0006FFF079B00205B0A236008B010BD04205D
:1032B00008B010BD0000002008B5084611461A46A7
:1032C0004FF0FF33FFF740FF20B9FFF74FFF002813
:1032D000FBD108BD012008BDF0B403788C7882B022
:1032E00000229C42ADF806201CD8CD789D4219D30F
:1032F0004E68A1B201E0AB4214D85B1A9BB2ADF8A4
:103300000430BDF8042010F8013F92B2A34236F811
:103310002270BDF8062002F102023A4492B2ADF8E2
:103320000620E8D2BDF8060002B0F0BC704700BF2E
:1033300020384B6880B233F8200070472DE9F04FF9
:10334000FB4CFC4F85B00025782003AE4FF0700891
:103350000AF09AF92A4620464FF028034FF480518C
:10336000ADF80C508DF80E308DF80C800BF07AFA19
:1033700031466423384603220EF050F820460122DD
:103380004FF480510BF06EFA4FF0720B2A46204634
:10339000CE234FF48051ADF80CB08DF80E300BF009
:1033A00061FA64233146384603220EF037F820468E
:1033B00001224FF480510BF055FA78200AF064F99D
:1033C0004FF011092A4620464FF48051ADF80C50B9
:1033D0008DF80E908DF80C800BF044FA6423314682
:1033E000384603220EF01AF8204601224FF480518D
:1033F0000BF038FA4FF01C0A2A4620464FF4805151
:10340000ADF80CB08DF80EA00BF02CFA6423314609
:10341000384603220EF002F8204601224FF4805174
:103420000BF020FA4FF0120B2A4620464FF4805141
:10343000ADF80C508DF80EB08DF80C800BF012FA30
:1034400031466423384603220DF0E8FF204601226E
:103450004FF480510BF006FA2A46204641F27223BF
:103460004FF480518DF80EB0ADF80C300BF0FAF936
:1034700031466423384603220DF0D0FF2046012256
:103480004FF480510BF0EEF92A46204613234FF4F7
:103490008051ADF80C508DF80E308DF80C800BF08B
:1034A000E1F931466423384603220DF0B7FF204688
:1034B00001224FF480510BF0D5F94FF0720B2A46E0
:1034C000204641234FF48051ADF80CB08DF80E30FA
:1034D0000BF0C8F931466423384603220DF09EFFF5
:1034E000204601224FF480510BF0BCF92A462046B9
:1034F00014234FF48051ADF80C508DF80E308DF838
:103500000C800BF0AFF931466423384603220DF0EE
:1035100085FF204601224FF480510BF0A3F945F2BC
:10352000722C2A4620466A234FF48051ADF80CC015
:103530008DF80E300BF096F931466423384603229D
:103540000DF06CFF204601224FF480510BF08AF9F8
:103550002A46204610234FF48051ADF80C508DF8C8
:103560000E308DF80C800BF07DF93146642338461F
:1035700003220DF053FF204601224FF480510BF03F
:1035800071F92A46204640F672434FF48051ADF857
:103590000C308DF80E500BF065F964233146384637
:1035A00003220DF03BFF204601224FF480510BF027
:1035B00059F90A200AF068F82A4620464FF480514B
:1035C000ADF80C508DF80E908DF80C800BF04AF988
:1035D00031466423384603220DF020FF20460122A5
:1035E0004FF480510BF03EF92A4620464FF4B97350
:1035F0004FF480518DF80EA0ADF80C300BF032F97D
:1036000064233146384603220DF008FF204601228C
:103610004FF480510BF026F90A200AF035F82A46BB
:1036200020464FF48051ADF80C508DF80E908DF877
:103630000C800BF017F931466423384603220DF055
:10364000EDFE204601224FF480510BF00BF92A4683
:10365000204640F272334FF480518DF80EA0ADF841
:103660000C300BF0FFF864233146384603220DF08E
:10367000D5FE204601224FF480510BF0F3F80A20CA
:103680000AF002F82A4620464FF48051ADF80C505B
:103690008DF80E908DF80C800BF0E4F83146642321
:1036A000384603220DF0BAFE204601224FF4805125
:1036B0000BF0D8F82A46204640F272734FF480513E
:1036C0008DF80EA0ADF80C300BF0CCF86423314629
:1036D000384603220DF0A2FE204601224FF480510D
:1036E0000BF0C0F80A2009F0CFFF2A4620464FF41D
:1036F0008051ADF80C508DF80E908DF80C800BF0C9
:10370000B1F864233146384603220DF087FE204687
:1037100001224FF480510BF0A5F840F6727B2A4647
:1037200020464FF480518DF80EA0ADF80CB003E0A8
:1037300000040240FC7401200BF094F8642331462D
:10374000384603220DF06AFE204601224FF48051D4
:103750000BF088F80A2009F097FF2A4620464FF41C
:1037600080518DF80E90ADF80C508DF80C800BF058
:1037700079F831466423384603220DF04FFE204687
:1037800001224FF480510BF06DF82A4620463C236D
:103790004FF48051ADF80CB08DF80E300BF062F89C
:1037A00064233146384603220DF038FE20460122BC
:1037B0004FF480510BF056F80A204FF0010909F040
:1037C00063FF2A4620464FF48051ADF80C508DF827
:1037D0000E908DF80C800BF045F864233146384686
:1037E00003220DF01BFE4A4620464FF480510BF099
:1037F00039F84FF4B97A4FF0280C2A4620464FF496
:1038000080518DF80EC0ADF80CA00BF02BF864239E
:103810003146384603220DF001FE4A4620464FF459
:1038200080510BF01FF84FF0020B2A4620464FF450
:103830008051ADF80C508DF80EB08DF80C800BF067
:1038400011F864233146384603220DF0E7FD4A465D
:1038500020464FF480510BF005F82A4620464FF4DD
:103860008051ADF80CA08DF80E500AF0FBFF6423D8
:103870003146384603220DF0D1FD4A4620464FF42A
:1038800080510AF0EFFF4FF0080A2A4620464FF415
:103890008051ADF80C508DF80EA08DF80C800AF018
:1038A000E1FF31466423384603220DF0B7FD4A4656
:1038B00020464FF480510AF0D5FF2A46204640F6B4
:1038C00072034FF480518DF80EA0ADF80C300AF061
:1038D000C9FF31466423384603220DF09FFD4A4656
:1038E00020464FF480510AF0BDFF2A4620460B23A4
:1038F0004FF48051ADF80C508DF80E308DF80C80DF
:103900000AF0B0FF31466423384603220DF086FDED
:103910004A4620464FF480510AF0A4FF2A4620462A
:1039200041F272134FF48051ADF80C308DF80E5007
:103930000AF098FF64233146384603220DF06EFDED
:103940004A4620464FF480514FF0030A0AF08AFF9E
:103950002A4620464FF48051ADF80C508DF80EA049
:103960008DF80C800AF07EFF5246314664233846BB
:103970000DF054FD4A4620464FF480510AF072FF84
:1039800041F272032A462046ADF80C304FF48051C4
:103990004FF030038DF80E300AF064FF5246314686
:1039A000642338460DF03AFD4A4620464FF48051D4
:1039B0000AF058FF2A4620460C234FF48051ADF8F8
:1039C0000C508DF80E308DF80C800AF04BFF6423FC
:1039D0005246314638460DF021FD4A4620464FF406
:1039E00080510AF03FFF2A4620468DF80EB04FF472
:1039F00080514FF0720BADF80CB00AF033FF524615
:103A00003146642338460DF009FD4A4620464FF4FE
:103A100080510AF027FF2A4620460E234FF480519A
:103A2000ADF80C508DF80E308DF80C800AF01AFFAE
:103A300052463146642338460DF0F0FC4A46204693
:103A40004FF480510AF00EFF2A46204640F27223BE
:103A50004FF48051ADF80C308DF80E500AF002FF93
:103A600052463146642338460DF0D8FC4A4620467B
:103A70004FF480510AF0F6FE2A4620460F234FF4F9
:103A80008051ADF80C508DF80E308DF80C800AF096
:103A9000E9FE52463146642338460DF0BFFC4A46E3
:103AA00020464FF480510AF0DDFE2A46204641F6BA
:103AB00072034FF48051ADF80C308DF80E900AF07F
:103AC000D1FE52463146642338460DF0A7FC4A46E3
:103AD00020464FF480510AF0C5FE2A4620461523A1
:103AE0004FF48051ADF80C508DF80E308DF80C80ED
:103AF0000AF0B8FE52463146642338460DF08EFC7B
:103B00004A4620464FF480510AF0ACFE4FF0200B9D
:103B10002A4620464FF072034FF48051ADF80C3026
:103B20008DF80EB00AF09EFE6423524631463846A8
:103B30000DF074FC4A4620464FF480510AF092FE84
:103B40002A4620464FF480518DF80EB0ADF80C5047
:103B50008DF80C800AF086FE6423524631463846C2
:103B60000DF05CFC4A4620464FF480510AF07AFE84
:103B70004FF0720B2A4620464FF48051ADF80CB03E
:103B80008DF80E500AF06EFE5246314664233846D8
:103B90000DF044FC4A4620464FF480510AF062FE84
:103BA0002A46204621234FF48051ADF80C508DF861
:103BB0000E308DF80C800AF055FE642352463146D3
:103BC00038460DF02BFC4A4620464FF480510AF04F
:103BD00049FE2A4620464FF48051ADF80CB08DF8CE
:103BE0000E500AF03FFE64235246314638460DF02F
:103BF00015FC4A4620464FF480510AF033FE05205A
:103C000009F042FD2A4620464FF030034FF4805120
:103C10008DF80E30ADF80C508DF80C800AF022FEB5
:103C200064235246314638460DF0F8FB4A4620469A
:103C30004FF480510AF016FE2A4620464FF4805178
:103C4000ADF80CB08DF80E500AF00CFE524631461D
:103C5000642338460DF0E2FB4A4620464FF480517B
:103C60000AF000FE2A46204634234FF48051ADF876
:103C70000C508DF80E308DF80C800AF0F3FD6423A3
:103C80005246314638460DF0C9FB4A4620464FF4AD
:103C900080510AF0E7FD4FF03F0B4FF4B97C2A4604
:103CA00020464FF48051ADF80CC08DF80EB00AF0EC
:103CB000D9FD52463146642338460DF0AFFB4A46E3
:103CC00020464FF480510AF0CDFD2A462046352388
:103CD0004FF48051ADF80C508DF80E308DF80C80FB
:103CE0000AF0C0FD52463146642338460DF096FB7B
:103CF0004A4620464FF480510AF0B4FD2A46204639
:103D00004FF072034FF48051ADF80C308DF80E5027
:103D10000AF0A8FD64235246314638460DF07EFB7A
:103D20004A4620464FF480510AF09CFD0A2009F0D3
:103D3000ABFC2A46204636234FF48051ADF80C5098
:103D40008DF80E308DF80C800AF08CFD524631460D
:103D5000642338460DF062FB4A4620464FF48051FA
:103D60000AF080FD4FF0720C2A462046EF234FF4F4
:103D70008051ADF80CC08DF80E300AF073FD52463C
:103D80003146642338460DF049FB4A4620464FF43D
:103D900080510AF067FD2A46204637234FF48051B0
:103DA000ADF80C508DF80E308DF80C800AF05AFDED
:103DB00064235246314638460DF030FB4A462046D1
:103DC0004FF480510AF04EFD4FF0720C2A46204607
:103DD0004FF48051ADF80CC08DF80E500AF042FD42
:103DE00052463146642338460DF018FB4A462046B9
:103DF0004FF480510AF036FD2A46204638234FF40E
:103E00008051ADF80C508DF80E308DF80C800AF012
:103E100029FD64235246314638460DF0FFFA4A46E2
:103E200020464FF480510AF01DFD4FF4B97E2A461A
:103E300020464FF48051ADF80CE08DF80EB00AF03A
:103E400011FD52463146642338460DF0E7FA4A46E2
:103E500020464FF480510AF005FD2A4620463923BA
:103E60004FF48051ADF80C508DF80E308DF80C8069
:103E70000AF0F8FC64235246314638460DF0CEFA7B
:103E80004A4620464FF480510AF0ECFC4FF0720C89
:103E90002A4620464FF48051ADF80CC08DF80E50E4
:103EA0000AF0E0FC64235246314638460DF0B6FA7B
:103EB0004A4620464FF480510AF0D4FC0A2009F00B
:103EC000E3FB2A46204650234FF48051ADF80C50B6
:103ED0008DF80E308DF80C800AF0C4FC6423314656
:103EE000524638460DF09AFA20464A464FF4805121
:103EF0000AF0B8FC4FF4B97A2A4620464FF48051B4
:103F0000ADF80CA08DF80E900AF0ACFC314664239D
:103F1000384603220DF082FA4A4620464FF480517B
:103F20000AF0A0FC2A46204651234FF48051ADF8F8
:103F30000C508DF80E308DF80C800AF093FC642341
:103F40003146384603220DF069FA4A4620464FF4BE
:103F500080514FF0030A0AF085FC40F2726B2A464A
:103F600020464FF48051ADF80CB08DF80EA00AF049
:103F700079FC31465246642338460DF04FFA4A46E2
:103F800020464FF480510AF06DFC2A462046522309
:103F90004FF48051ADF80C508DF80E308DF80C8038
:103FA0000AF060FC31465246384664230DF036FA7A
:103FB0004A46722320464FF4805101930AF052FC86
:103FC00040F2724C2A46204608234FF48051ADF847
:103FD0000CC08DF80E300AF045FC31465246642381
:103FE00038460DF01BFA4A4620464FF480510AF03D
:103FF00039FC2A46204653234FF48051ADF80C502B
:104000008DF80E308DF80C800AF02CFC31465246AB
:10401000642338460DF002FA4A4620464FF4805198
:104020000AF020FC019BADF80C302A4620464FF4E4
:1040300080518DF80E500AF015FC3146524664232B
:1040400038460DF0EBF94A4620464FF480510AF00D
:1040500009FC2A46204654234FF48051ADF80C50F9
:104060008DF80E308DF80C800AF0FCFB314652467C
:10407000642338460DF0D2F94A4620464FF4805169
:104080000AF0F0FB2A46204605234FF48051ADF894
:104090000CB08DF80E300AF0E5FB31465246642331
:1040A00038460DF0BBF94A4620464FF480510AF0DD
:1040B000D9FB2A46204655234FF48051ADF80C50C9
:1040C0008DF80E308DF80C800AF0CCFB314652464C
:1040D000642338460DF0A2F94A4620464FF4805139
:1040E0000AF0C0FB40F2724C2A46204606234FF4E9
:1040F0008051ADF80CC08DF80E300AF0B3FB31469C
:104100005246642338460DF089F94A4620464FF45A
:1041100080510AF0A7FB2A46204656234FF48051CF
:10412000ADF80C508DF80E308DF80C800AF09AFB2B
:1041300064233146524638460DF070F94A4620460F
:104140004FF480510AF08EFB40F2723B2A46204623
:104150004FF480518DF80EA0ADF80CB00AF082FB40
:1041600031465246642338460DF058F94A462046F7
:104170004FF480510AF076FB2A46204657234FF42D
:104180008051ADF80C508DF80E308DF80C800AF08F
:1041900069FB64233146524638460DF03FF94A46E2
:1041A00020464FF480510AF05DFB2A4620464FF42A
:1041B0008051ADF80CB08DF80EA00AF053FB3146DB
:1041C0005246642338460DF029F94A4620464FF4FA
:1041D00080510AF047FB2A46204658234FF480516D
:1041E000ADF80C508DF80E308DF80C800AF03AFBCB
:1041F00031465246642338460DF010F94A462046AF
:104200004FF480510AF02EFB4FF0100C019B8DF8FB
:104210000EC02A4620464FF48051ADF80C300AF00B
:1042200021FB31465246642338460DF0F7F84A46E2
:1042300020464FF480510AF015FB2A4620465923A8
:104240004FF48051ADF80C508DF80E308DF80C8085
:104250000AF008FB31465246642338460DF0DEF87A
:104260004A4620464FF480510AF0FCFA2A4620467E
:1042700041F272034FF48051ADF80C308DF80E50BE
:104280000AF0F0FA31465246642338460DF0C6F87B
:104290004A4620464FF480510AF0E4FA2A46204666
:1042A0000F234FF48051ADF80C508DF80E308DF87F
:1042B0000C800AF0D7FA31465246642338460DF096
:1042C000ADF84A4620464FF480510AF0CBFA2A4610
:1042D000204641F672634FF48051ADF80C308DF8F2
:1042E0000E900AF0BFFA31465246642338460DF06C
:1042F00095F84A4620464FF480510AF0B3FA2A4610
:10430000204607234FF48051ADF80C508DF80E3045
:104310008DF80C800AF0A6FA3146524664233846DE
:104320000DF07CF84A4620464FF480510AF09AFA84
:104330004FF0720C2A46204613234FF48051ADF8FB
:104340000CC08DF80E300AF08DFA642331465246C7
:1043500038460DF063F84A4620464FF480510AF083
:1043600081FA0A2009F090F92A46204622234FF4C8
:104370008051ADF80C508DF80E308DF80C800AF09D
:1043800071FA52463146642338460DF047F84A46E2
:1043900020464FF480510AF065FA05B0BDE8F08F71
:1043A0002DE9F04FB34CB44E89B000254FF0200CEE
:1043B0004FF0700980460F46049220462A464FF47B
:1043C00080518DF81EC00593ADF81C508DF81C90DF
:1043D0000AF048FA07A96423304603220DF01EF8BC
:1043E000204601224FF480510AF03CFA5FFA88F12E
:1043F0004FEA182301914FF0720A2A462046039390
:104400008DF81D304FF48051019B8DF81E308DF8D2
:104410001CA00AF027FA07A96423304603220CF0F7
:10442000FDFF204601224FF480510AF01BFA2A4674
:10443000204621234FF48051ADF81C508DF81E30DA
:104440008DF81C900AF00EFA07A964233046032267
:104450000CF0E4FF204601224FF480510AF002FAEA
:10446000380A03465FFA87FB2A4620464FF48051FC
:1044700002938DF81D308DF81CA08DF81EB00AF047
:10448000F1F907A96423304603220CF0C7FF204648
:1044900001224FF480510AF0E5F9049AADF81C505E
:1044A0002046362390444FF480512A468DF81E3022
:1044B0008DF81C900AF0D6F907A964233046032230
:1044C0000CF0ACFF1FFA88F8204601224FF480510F
:1044D0000AF0C8F94FEA18232A4620464FF48051C3
:1044E0008DF81D308DF81E808DF81CA00AF0BAF9E9
:1044F00007A96423304603220CF090FF20460122D6
:104500004FF480510AF0AEF92A46204637234FF483
:104510008051ADF81C508DF81E308DF81C900AF0BB
:10452000A1F907A96423304603220CF077FF204647
:1045300001224FF480510AF095F9039B8DF81D304C
:104540002A46019B8DF81E3020464FF480518DF88D
:104550001CA00AF087F907A96423304603220CF057
:104560005DFF204601224FF480510AF07BF9059A45
:10457000ADF81C502046382317444FF480512A468A
:104580008DF81E308DF81C900AF06CF907A9642391
:10459000304603220CF042FFBFB2204601224FF406
:1045A00080510AF05FF93B0A2A4620464FF48051B9
:1045B0008DF81D308DF81E708DF81CA00AF052F990
:1045C00007A96423304603220CF028FF204601226D
:1045D0004FF480510AF046F92A46204639234FF419
:1045E0008051ADF81C508DF81E308DF81C900AF0EB
:1045F00039F907A96423304603220CF00FFF204647
:1046000001224FF480510AF02DF9029B8DF81D30E4
:104610002A4620464FF480518DF81EB08DF81CA01C
:104620000AF020F907A96423304603220CF0F6FEB5
:10463000204601224FF480510AF014F92A46204600
:1046400022234FF48051ADF81C508DF81E308DF8A8
:104650001C900AF007F907A96423304603220CF0E6
:10466000DDFE204601224FF480510AF0FBF809B02C
:10467000BDE8F08F00040240FC7401202DE9F04FEA
:10468000ADF6040D89464FF40062002107466846E6
:1046900013F057FD4FEA4909722300224FF480516D
:1046A00033488DF800300AF0DDF8B9F5806F6946BF
:1046B0004FF064034FF002022E484E4628BF4FF4DD
:1046C00080660CF0ABFEB9F1000F39D04FEA460A14
:1046D000B9F1020F4FEA17281FFA8AFAFFB24FEA20
:1046E000560526F0010B4C4640D9002167F307011F
:1046F00068F30F2167F3174168F31F6100236A46CF
:1047000001339D4242F8041BFAD85E450FD05B4648
:104710000DEB43015A1CB2420DF8137081F8018071
:1047200005D20DEB42030DF8127083F80180A6420A
:1047300010D9620092B2694664230E480CF06EFEF6
:1047400001224FF480510A480AF08CF80DF6040D4E
:10475000BDE8F08FA41B64235246694605480CF05F
:104760005DFE002CECD0B9F1020FBED80023CFE7DC
:1047700000040240FC7401202DE9F043A34CA44E38
:1047800083B00025702781462A46204620234FF417
:104790008051ADF804508DF806308DF804700AF0A1
:1047A00061F8642301A9304603220CF037FE20464D
:1047B00001224FF480510AF055F84FF072082A4652
:1047C00020464FF480518DF80650ADF804800AF071
:1047D00049F801A96423304603220CF01FFE20464D
:1047E00001224FF480510AF03DF82A462046212349
:1047F0004FF48051ADF804508DF806308DF80470F8
:104800000AF030F8642301A9304603220CF006FEBA
:10481000204601224FF480510AF024F82A4620460F
:104820004FF48051ADF804808DF806500AF01AF864
:1048300001A96423304603220CF0F0FD204601223A
:104840004FF480510AF00EF82A46204636234FF4E2
:104850008051ADF804508DF806308DF804700AF0E0
:1048600001F801A96423304603220CF0D7FD20464D
:1048700001224FF4805109F0F5FF2A462046EF232C
:104880004FF480518DF80630ADF8048009F0EAFF4E
:1048900001A96423304603220CF0C0FD204601220A
:1048A0004FF4805109F0DEFF2A46204637234FF4AB
:1048B0008051ADF804508DF806308DF8047009F081
:1048C000D1FF642301A9304603220CF0A7FD204646
:1048D00001224FF4805109F0C5FF2A4620464FF4CB
:1048E0008051ADF804808DF8065009F0BBFF01A996
:1048F0006423304603220CF091FD204601224FF440
:10490000805109F0AFFF2A46204638234FF48051EA
:10491000ADF804508DF806308DF8047009F0A2FF50
:1049200001A96423304603220CF078FD20460122C1
:104930004FF4805109F096FF4FF4B97C2A46204687
:104940003F234FF48051ADF804C08DF8063009F0D4
:1049500089FF01A96423304603220CF05FFD204645
:1049600001224FF4805109F07DFF2A462046392369
:104970004FF48051ADF804508DF806308DF8047076
:1049800009F070FF642301A9304603220CF046FDB4
:10499000204601224FF4805109F064FF2A46204648
:1049A0004FF48051ADF804808DF8065009F05AFF9D
:1049B00001A96423304603220CF030FD2046012279
:1049C0004FF4805109F04EFF2A46204622234FF42F
:1049D0008051ADF804508DF806308DF8047009F060
:1049E00041FF642301A9304603220CF017FD204645
:1049F00001224FF4805109F035FF48464FF49631BB
:104A0000FFF73CFE03B0BDE8F08300BF00040240A6
:104A1000FC7401202DE9F04F89B0C44CBDF848501A
:104A2000C34E059500254FF070094FF0200C8046CD
:104A30000F46019220462A464FF480518DF81EC041
:104A40000293ADF81C508DF81C9009F00BFF07A9DC
:104A50006423304603220CF0E1FC204601224FF48F
:104A6000805109F0FFFE5FFA88F14FEA18230091A8
:104A70004FF0720A2A46204604938DF81D304FF4F9
:104A80008051009B8DF81E308DF81CA009F0EAFEC5
:104A90000DF11C0C61466423304603220CF0BEFC71
:104AA000204601224FF4805109F0DCFE2A462046C0
:104AB00021234FF48051ADF81C508DF81E308DF835
:104AC0001C9009F0CFFE0DF11C0C614664233046AA
:104AD00003220CF0A3FC204601224FF4805109F080
:104AE000C1FE4FEA172B5FFA87FC2A4620464FF497
:104AF0008051CDF80CC08DF81EC08DF81CA08DF82B
:104B00001DB009F0AFFE0DF11C0C61466423304668
:104B100003220CF083FC204601224FF4805109F05F
:104B2000A1FE019AADF81C5008F1FF38204636234B
:104B300090444FF480512A468DF81E308DF81C9019
:104B400009F090FE0DF11C0C6146642330460322EF
:104B50000CF064FC1FFA88F8204601224FF48051C3
:104B600009F080FE4FEA18232A4620464FF4805170
:104B70008DF81D308DF81E808DF81CA009F072FE96
:104B80000DF11C0C61466423304603220CF046FCF8
:104B9000204601224FF4805109F064FE2A46204647
:104BA00037234FF48051ADF81C508DF81E308DF82E
:104BB0001C9009F057FE0DF11C0C61466423304631
:104BC00003220CF02BFC204601224FF4805109F007
:104BD00049FE049B8DF81D302A46009B8DF81E303F
:104BE00020464FF480518DF81CA009F03BFE0DF1DA
:104BF0001C0C61466423304603220CF00FFC204657
:104C000001224FF4805109F02DFE0299ADF81C509D
:104C1000013F2A46204638230F444FF480518DF837
:104C20001E308DF81C9009F01DFE0DF11C0C614624
:104C30006423304603220CF0F1FBBFB22046012270
:104C40004FF4805109F00EFE3B0A2A4620468DF8AB
:104C50001E704FF4805107AF8DF81D308DF81CA0E9
:104C600009F000FE39466423304603220CF0D6FBDF
:104C7000204601224FF4805109F0F4FD07AF2A4687
:104C8000204639234FF48051ADF81C508DF81E306A
:104C90008DF81C9009F0E6FD394664233046032266
:104CA0000CF0BCFB204601224FF4805109F0DAFDE4
:104CB000039B8DF81E302A4620464FF480518DF814
:104CC0001DB08DF81CA009F0CDFD07AB194630468C
:104CD000642303220CF0A2FB204601224FF48051F2
:104CE00009F0C0FD2A46204622234FF48051ADF83A
:104CF0001C508DF81E308DF81C9009F0B3FD07ABE9
:104D000019463046642303220CF088FB204601221A
:104D10004FF4805109F0A6FDDDE90121059801FB62
:104D200002F1FFF7ABFC09B0BDE8F08F00040240D0
:104D3000FC7401202DE9F04FB14CB24E87B0002534
:104D40004FF0200C4FF0700807468A46019220462B
:104D50002A464FF480518DF816C00393ADF81450D5
:104D60008DF8148009F07EFD05A9642330460322E6
:104D70000CF054FB204601224FF4805109F072FDE3
:104D8000F9B23B0A00914FF072092A46204602937D
:104D90008DF815304FF48051009B8DF816308DF84A
:104DA000149009F05FFD05A96423304603220CF03E
:104DB00035FB204601224FF4805109F053FD2A466D
:104DC000204621234FF48051ADF814508DF8163051
:104DD0008DF8148009F046FD642305A930460322AE
:104DE0000CF01CFB204601224FF4805109F03AFDE3
:104DF0004FEA1A2B2A465FFA8AFA20464FF480516E
:104E00008DF814908DF815B08DF816A009F02AFDD4
:104E100005A96423304603220CF000FB2046012242
:104E20004FF4805109F01EFD019AADF81450013F76
:104E30002046362317444FF480512A468DF8163009
:104E40008DF8148009F00EFD05A964233046032275
:104E50000CF0E4FABFB2204601224FF4805109F071
:104E600001FD3B0A2A4620464FF480518DF816700A
:104E70008DF815308DF8149009F0F4FC05A9642321
:104E8000304603220CF0CAFA204601224FF480512A
:104E900009F0E8FC2A46204637234FF48051ADF84C
:104EA00014508DF816308DF8148009F0DBFC05A93C
:104EB0006423304603220CF0B1FA204601224FF45D
:104EC000805109F0CFFC029B009F8DF815302A46D7
:104ED00020464FF480518DF816708DF8149009F02B
:104EE000C1FC05A96423304603220CF097FA204642
:104EF00001224FF4805109F0B5FC2A4620463823A0
:104F00004FF48051ADF814508DF816308DF81480A0
:104F100009F0A8FC642305A9304603220CF07EFAB0
:104F2000204601224FF4805109F09CFC2A4620467D
:104F30004FF480518DF815B08DF816A08DF81490AF
:104F400009F090FC05A96423304603220CF066FAB0
:104F5000204601224FF4805109F084FC2A46204665
:104F600039234FF48051ADF814508DF816308DF878
:104F7000148009F077FC642305A9304603220CF065
:104F80004DFA204601224FF4805109F06BFC2A466D
:104F900020464FF480518DF815B08DF816A08DF88D
:104FA000149009F05FFC05A96423304603220CF03D
:104FB00035FA204601224FF4805109F053FC2A466D
:104FC000204622234FF48051ADF814508DF816304E
:104FD0008DF8148009F046FC642305A930460322AD
:104FE0000CF01CFA204601224FF4805109F03AFCE3
:104FF00001990398FFF742FB07B0BDE8F08F00BFAF
:1050000000040240FC7401202DE9F04FB14CB24E77
:1050100087B000254FF0200C4FF070080F468246F5
:10502000019220462A464FF480518DF816C0039312
:10503000ADF814508DF8148009F014FC642305A910
:10504000304603220CF0EAF9204601224FF4805149
:1050500009F008FC4FF072094FEA1A2B2A465FFA52
:105060008AFA20464FF480518DF815B08DF816A0BD
:105070008DF8149009F0F6FB05A96423304603224D
:105080000CF0CCF9204601224FF4805109F0EAFBE4
:105090002A46204621234FF48051ADF814508DF854
:1050A00016308DF8148009F0DDFB05A96423304625
:1050B00003220CF0B3F9204601224FF4805109F08D
:1050C000D1FBF9B23B0A00912A46204602938DF8A3
:1050D00015304FF48051009B8DF816308DF81490E8
:1050E00009F0C0FB05A96423304603220CF096F9B1
:1050F000204601224FF4805109F0B4FB2A46204695
:1051000036234FF48051ADF814508DF816308DF8D9
:10511000148009F0A7FB642305A9304603220CF094
:105120007DF9204601224FF4805109F09BFB2A466D
:1051300020464FF480518DF815B08DF816A08DF8EB
:10514000149009F08FFB05A96423304603220CF06C
:1051500065F9204601224FF4805109F083FB2A466D
:10516000204637234FF48051ADF814508DF8163097
:105170008DF8148009F076FB642305A930460322DC
:105180000CF04CF9204601224FF4805109F06AFBE3
:105190002A4620464FF480518DF815B08DF816A0A0
:1051A0008DF8149009F05EFB05A9642330460322B4
:1051B0000CF034F9204601224FF4805109F052FBE3
:1051C000019AADF81450013F2046382317444FF49C
:1051D00080512A468DF816308DF8148009F042FB74
:1051E00005A96423304603220CF018F9BFB220460B
:1051F00001224FF4805109F035FB3B0A2A46204634
:105200004FF480518DF816708DF815308DF814908C
:1052100009F028FB05A96423304603220CF0FEF8B0
:10522000204601224FF4805109F01CFB2A462046FB
:1052300039234FF48051ADF814508DF816308DF8A5
:10524000148009F00FFB05A96423304603220CF0FB
:10525000E5F8204601224FF4805109F003FB029B40
:10526000009F8DF815302A4620464FF480518DF866
:1052700016708DF8149009F0F5FA05A964233046EC
:1052800003220CF0CBF8204601224FF4805109F0A4
:10529000E9FA2A46204622234FF48051ADF81450F3
:1052A0008DF816308DF8148009F0DCFA642305A916
:1052B000304603220CF0B2F8204601224FF4805110
:1052C00009F0D0FA01990398FFF7D8F907B0BDE8C3
:1052D000F08F00BF00040240FC7401202DE9F04F64
:1052E000524C534E83B0002583468A4691464FF078
:1052F000700820462A4620234FF48051ADF8045010
:105300008DF806308DF8048009F0ACFA01A9642309
:10531000304603220CF082F8204601224FF48051DF
:1053200009F0A0FA72274FEA1B232A4620464FF4C1
:1053300080518DF805308DF806B08DF8047009F0B5
:1053400091FA01A96423304603220CF067F8204645
:1053500001224FF4805109F085FA2A462046212384
:105360004FF48051ADF804508DF806308DF804806C
:1053700009F078FA01A96423304603220CF04EF8B4
:10538000204601224FF4805109F06CFA4FEA1A23AB
:105390002A4620464FF480518DF805308DF8047070
:1053A0008DF806A009F05EFA01A9642330460322B5
:1053B0000CF034F8204601224FF4805109F052FAE3
:1053C0002A46204622234FF48051ADF804508DF830
:1053D00006308DF8048009F045FA01A964233046AF
:1053E00003220CF01BF8204601224FF4805109F0F3
:1053F00039FA4FEA19232A4620464FF480518DF896
:1054000005308DF804708DF8069009F02BFA01A98B
:105410006423304603220CF001F8204601224FF4A9
:10542000805109F01FFA03B0BDE8F08F000402407C
:10543000FC74012000224FF48051014809F012BA97
:105440000004024001224FF48051014809F00ABAD9
:105450000004024008B500F013F91B4BD88D00F092
:1054600039FA00F097F800F0B1F804F0C1FB04F04D
:10547000FDF804F0F9FE03F03FFB06F017FB03F024
:105480003DFE05F001FE05F045F805F0C9FA03F010
:10549000A5FF01F027FE05F015FD01F0FFFE03F06A
:1054A000EFF902F03BFD02F0ADFF03F0EBFC02F080
:1054B00001FA05F0CDFF05F021FA04490120BDE80D
:1054C000084000F069BA00BF1C56012040A7002028
:1054D00010B500F07DF804F047F904F07BF804F013
:1054E00071FE03F085FA06F05DFA03F0A9FD05F000
:1054F00079FD04F037FF05F023FA03F0D7FE01F041
:10550000BFFD05F085FB01F053FE03F051F902F0F9
:105510008BFC02F0EBFD03F0FBFB01F093FF05F0C9
:1055200031FE05F045F9FCF751F84BF6AF639842B0
:105530000ED0144C08F0A2F8134B18601348FCF777
:1055400017FA134B2080D88DBDE8104000F0C2B987
:105550000E480C4CFCF70CFA23888342EAD108F081
:105560008DF80B4B084A598F12684EF66023801A4B
:1055700003FB01F3984200D210BD6420BDE8104047
:1055800000F0A8B93CA7002038A700200056012051
:105590001C56012010B5ADF5B44D82B002AC4FF4ED
:1055A000B4420949204612F0C1FD47F6F64000F02A
:1055B000FBF800944823A0227E21282000F052F915
:1055C0000DF5B44D02B010BD30A40108704700BF06
:1055D00010B52448244CFCF759FE20822348FCF7E0
:1055E00055FE60822248FCF751FEA0822148FCF75C
:1055F0004DFEE0822048FCF749FE20831F48FCF75F
:1056000045FE60831748FCF769FEA0831748FCF746
:1056100065FEE0831648FCF761FE20841548FCF720
:105620005DFE60841448FCF759FEA0841348FCF723
:1056300055FEE084204600F0B1F9238E012B03D003
:10564000638E012B09D010BDB4F84E30002BF7D07B
:10565000FCF768FF638E012BF5D1BDE81040FCF725
:1056600079BF00BFE424002040A700201C250020B3
:1056700038250020AC240020C8240020002500206C
:1056800008B50C2106480CF0ABFE064B00221A644C
:10569000FDF754FE44F2EE20BDE80840FFF76CB879
:1056A0002C76012000040040FFF718BEFFF7ACBCC9
:1056B0002DE9F04F8A4687B0017804909AF80200ED
:1056C000BDF8404001948842CDE902324ED89AF8A4
:1056D00003308B424AD3DAF80430A1F120081FFAD4
:1056E00088F803EB8808202988BF4346B8F800E013
:1056F0000593BEF1000F2DD04FF0000B9AF800106B
:105700005E46039B9B441FFA8BFB0027002944D075
:10571000012303FA07F5029BB8F802C0DAF8080083
:10572000002403EB0709831904FB0E33621C13F8F2
:105730000C302B421DD1D4B28C42F4D30137082F48
:10574000E4D10136F6B21FFA86FBF345D9D39AF8B5
:105750000200059B049A1B8812F8011F0492039A09
:1057600002331A4493B288420393B0D907B0BDE81C
:10577000F08F09EBC40189B2019A5846FFF7AEFDDC
:1057800001349AF80010B8F800E0E4B28C42D5D2A7
:10579000B8F802C0DAF80800C5E70137082FD0D002
:1057A0000137082FB2D1CCE7FEF7E6BF2DE9F04F65
:1057B00085B0BDF838A0BDF84040BDF83C900394DA
:1057C000BAF1000F47D0CDE901234FF000088B4616
:1057D00000904646019B7500581B009B0BEB06048E
:1057E0009F19029B86B2BFB2A4B2324638465D1BF7
:1057F00021464B46FFF79EFAADB2611E2944324660
:10580000384689B24B46FFF795FA08F10108384649
:10581000013F4B462A46214637445FFA88F8FFF796
:10582000F3FB1FFA88F6B8B22A4621464B46FFF72B
:10583000EBFBB245CED8009B019C534418464FEA7F
:105840004A02029B92B29B1A0AEB0B01A21A89B27E
:105850009BB292B280B2039C0E9405B0BDE8F04FAB
:10586000FFF7D8B82DE9F041144682B01D46013A41
:10587000013B92B29BB202AF0026ADF80460FEF786
:105880008FFD722327F8043DFFF7D4FD05FB04F5D7
:105890003946642302220E480BF0C0FD9DB1089CDE
:1058A000DFF82C8004EB4505237866788DF8053009
:1058B000023464230222394640468DF804600BF01E
:1058C000ADFDA542F0D1FFF7BDFD02B0BDE8F0810E
:1058D000FC740120014B1864704700BF00040040B5
:1058E000014B186C80B270470004004070B5438AC9
:1058F0004568012B84B0044641D0828AC38A298935
:10590000C2F1F000C3F5A07300EBD07003EBD373CA
:1059100001EB6000A2EB410201EB630180B292B2A5
:1059200089B26B8802936B8901930023009314233F
:10593000FFF73CFFD4E90130D968FDF7CDFC638A5D
:105940006668C0F1F002012BC2F34E021BD0F16871
:10595000E38A48783589C3F5A073C0F1140003EBDE
:10596000D373C0F34E0005EB630303449BB2A068FE
:10597000B488CDE90044FFF79BFE04B070BD002160
:105980000846F022CDE7F1684B78C3F11403C3F366
:105990004E03ECE7808870470880704738B5038A6B
:1059A0000022044602860BB9438AF3B10123238601
:1059B000A38B0BB9E38B53B1012363861548E58DA7
:1059C000FBF7D6FF85421DD10023238638BD238CEB
:1059D000002BF1D1638C002BEED1A38C002BEBD1EB
:1059E000E38C003318BF0123E7E7838A002BDDD166
:1059F000C38A002BDAD1038B002BD7D1438B002B2A
:105A0000D6D0D3E70348FBF7B3FF0123E085238615
:105A100038BD00BF0056012008B1CB8903B17047E3
:105A200010B50C461822014604F1340013F0DAF8E0
:105A30000123E38110BD00BF343070470023C381D0
:105A4000704700BFC0897047B0F84C3013B10022D6
:105A5000A0F84C20184670470123A0F84C3070473E
:105A6000B0F84E00704700BFA1F84E00704700BF6D
:105A700030B50368028A5988914285B0044607D040
:105A8000188890423CD0002384F8243005B030BD03
:105A9000038C04228284002BF8D1294894F82850E2
:105AA000FBF766FF854204D02548FBF761FF84F8C9
:105AB000280094F82430012BE8D1638A6568012B13
:105AC000288836D00290A28AE38A69890191C2F1BE
:105AD000F000C3F5A0712D89009500EBD07001EBAB
